:020000040800F2
:10000000D008002001010008B9080008B108000864
:10001000B50800081B070008F70E000800000000E4
:100020000000000000000000000000005D0A000861
:100030001F0700080000000065090008E50B000824
:100040001B0100081B0100081B0100081B01000820
:100050001B0100081B0100081B0100081B01000810
:100060001B0100081B0100081B0100081B01000800
:100070001B0100081B0100081B0100081B010008F0
:100080001B0100081B0100081B0100081B010008E0
:100090001B0100081B0100081B0100081B010008D0
:1000A0001B0100081B0100081B0100081B010008C0
:1000B0001B0100081B0100081B0100081B010008B0
:1000C0001B0100081B0100081B0100081B010008A0
:1000D0001B010008890C00081B0100081B01000817
:1000E0001B0100081B0100081B010008DFF80CD0F1
:1000F00000F044FA00480047214C0008D0080020D6
:100100000648804706480047FEE7FEE7FEE7FEE7B1
:10011000FEE7FEE7FEE7FEE7FEE7FEE7110C00085C
:10012000ED00000840EA01039B0703D009E008C97D
:10013000121F08C0042AFAD203E011F8013B00F8AC
:10014000013B521EF9D27047D2B201E000F8012BF8
:10015000491EFBD270470022F6E710B513460A4647
:1001600004461946FFF7F0FF204610BD034611F87C
:10017000012B00F8012B002AF9D11846704730B541
:100180000B46014600202022012409E021FA02F555
:100190009D4205D303FA02F5491B04FA02F52844EF
:1001A000151EA2F10102F1DC30BD2DE9F05F05461C
:1001B000002092469B4688460646814640241BE026
:1001C000284641464746224600F0F9F953465A462A
:1001D000C01A914110D311461846224600F0E0F9AA
:1001E0002D1A67EB01084F4622460120002100F03E
:1001F000D7F917EB00094E41201EA4F10104DFDC02
:10020000484631462A464346BDE8F09F2DE9FE4F59
:10021000804681EA0300C00F0C46009021F00041A7
:1002200023F00045B8EB0200A94105D24046214623
:1002300090461C460B46024623F00040104347D030
:10024000270DC7F30A00C3F30A510290401A019028
:1002500040286BDAC3F3130040F4801B00989246E9
:1002600020B10023D2EB030A63EB0B0B0198594634
:10027000C0F14002504600F093F906460D46504644
:100280005946019A00F0ABF910EB080061410024D7
:1002900087EA115284EAE7731A4340D0009A62B3A6
:1002A000019A012A4FEA075215DC001B61EB02019B
:1002B0004FF0004202EA0752CDE90042001C41F52E
:1002C000801132462B4600F0ABF903B0BDE8F08F49
:1002D00040462146F9E7001B61EB0201001C41F595
:1002E000801300185B412018A2F5001747EB0301AB
:1002F00040EAD570B6196D4111E06D084FEA360637
:1003000045EAC0754FEA0752001B61EB0201001C71
:1003100041F5801149084FEA300000195141324639
:100320002B4603B0BDE8F04F00F06BB900980122F6
:1003300040000023D0EB020263EBE07300982146FB
:100340004FEAE074B8EB000061EB0401E9E783F0E9
:1003500000435BE781F0004158E72DE9FE4F81EA59
:10036000030404F0004421F0004100944FF0000B1E
:1003700023F0004350EA01045ED052EA03045BD04C
:10038000C3F30A54C1F30A552C44A4F2F334019484
:10039000A0FB0254C1F3130141F48011C3F3130312
:1003A00043F4801301FB024400FB034E840A970AC6
:1003B00044EA815447EA8357A4FB076802958D0AF3
:1003C00005FB07854FEA932C04FB0C542705029D7F
:1003D0004FEA065847EA1637B5EB08056EEB070CEF
:1003E000870E920E47EA811742EA8312A7FB0201A9
:1003F000B6EB0B0164EB00042B0D43EA0C335E18E3
:1004000044EB1C50DA465146E7FB0201C5F31304E6
:100410004FEA0B3343EA14534FEA0432019C43EA98
:100420000603A4F10C040294009CCDE900B400F092
:10043000F7F803B0BDE8F08F00200146F9E72DE999
:10044000F04D81EA030404F0004B21F0004514460E
:100450004FF0000A23F0004150EA050220D054EA90
:1004600001021DD0C5F30A570246C5F31303C1F3B9
:100470001300C1F30A5640F4801543F48013A7EB30
:100480000608101BD64608F2FD3873EB050002D3B0
:1004900008F1010801E092185B41B8F1000F03DA9E
:1004A00000200146BDE8F08D00204FF48011064683
:1004B00084460EE0171B73EB050705D3121B63EB95
:1004C000050306434CEA010C49084FEA3000921834
:1004D0005B4150EA0107EDD152EA030012D082EAF3
:1004E000040083EA0501084305D0101BAB4106D286
:1004F0000122002306E000224FF0004302E06FF0EB
:10050000010253101AEB06004CEB085110EB0A00E5
:1005100041EB0B01BDE8F04D00F073B8C1F30A5296
:10052000C1F3130140F2FF3341F480119A4202DA21
:1005300000200146704740F233439A42A2F2334210
:1005400002DC524200F03BB800F02AB830B5041E7D
:1005500071F1000404DB4FF00044404264EB010100
:10056000141E73F1000405DB1C464FF00043524299
:1005700063EB0403994208BF904230BD064C074D1F
:1005800006E0E06840F0010394E807009847103463
:10059000AC42F6D3FFF7AEFD90520008B05200080F
:1005A000202A04DB203A00FA02F100207047914033
:1005B000C2F1200320FA03F3194390407047202A28
:1005C00004DB203A21FA02F00021704721FA02F3FD
:1005D000D040C2F120029140084319467047202ABA
:1005E00006DBCB17203A41FA02F043EAE07306E05B
:1005F00041FA02F3D040C2F120029140084319466B
:10060000704710B5141E73F1000408DA401C41F164
:10061000000192185B411A4301D120F0010010BD86
:100620002DE9F04D92469B4611B1B1FA81F202E0FC
:10063000B0FA80F220329046FFF7B2FF04460F4630
:1006400040EA0A0041EA0B0153465A46084313D0D8
:10065000114653EA010019D0C8F140025046FFF795
:10066000AEFF05460E46504659464246FFF798FFF4
:10067000084305D0012004E020463946BDE8F08D4E
:100680000020054346EAE0762C4337430A98630589
:10069000E40AA0EB08000022FD0A44EA47540A30AD
:1006A00002D500200146E9E7010510196941DDE99D
:1006B000084500196941BDE8F04DA2E770B58D18F5
:1006C00010F8014B14F0030201D110F8012B231193
:1006D00006D110F8013B03E010F8016B01F8016B43
:1006E000521EF9D1ABB110F8012B04F00C048A1A98
:1006F0000C2C03D0A2EB84129B1C08E010F8014BD9
:10070000A2EB0422F8E712F8014B01F8014B5B1E43
:10071000F9D5A942D4D3002070BD00BFFEE77047D1
:1007200008B50121082000F01FF92020ADF80000D5
:1007300010208DF8030003208DF8020069460F4851
:1007400000F01EF80120ADF8000069460B4800F0EB
:1007500017F80220ADF800006946084800F010F8CC
:100760002021064800F0A2F80121044800F09EF87C
:100770000221024800F09AF808BD0000000C014078
:100780002DE9F04102460025002600200023002428
:10079000002791F803C00CF00F0591F803C00CF08E
:1007A000100CBCF1000F03D091F802C04CEA050513
:1007B00091F800C0BCF1000F31D0146800202BE08C
:1007C0004FF0010C0CFA00F3B1F800C00CEA03067C
:1007D0009E4220D183004FF00F0C0CFA03F7BC436C
:1007E00005FA03FC4CEA040491F803C0BCF1280F9D
:1007F00006D14FF0010C0CFA00FCC2F814C00AE05C
:1008000091F803C0BCF1480F05D14FF0010C0CFA70
:1008100000FCC2F810C0401C0828D1D31460B1F805
:1008200000C0BCF1FF0F34DD546800202EE000F161
:10083000080C4FF0010808FA0CF3B1F800C00CEAFC
:1008400003069E4221D183004FF00F0C0CFA03F7F0
:10085000BC4305FA03FC4CEA040491F803C0BCF164
:10086000280F05D100F1080C08FA0CF8C2F8148022
:1008700091F803C0BCF1480F07D100F1080C4FF00C
:10088000010808FA0CF8C2F81080401C0828CED3E2
:100890005460BDE8F0810246002093680B400BB124
:1008A000012000E0002070474161704701617047FE
:1008B00000BFFEE700BFFEE7704708B54FF4A06039
:1008C00000F046F825208DF8000001208DF8010089
:1008D0008DF802008DF80300684600F001F808BDAD
:1008E00070B5002100230F22C47804B3154C24688E
:1008F00004F4E064C4F5E064210AC1F10403CA40D1
:10090000447804FA03F184781440214309010E4C21
:100910000678A155047804F01F050124AC40057841
:100920006D11AD0005F1E025C5F8004109E004783E
:1009300004F01F050124AC40044D0678761145F8FB
:10094000264070BD0CED00E000E400E080E100E036
:1009500002490143024A1160704700000000FA0595
:100960000CED00E07047000029B1064A926902438D
:10097000044B9A6104E0034A92698243014B9A61F5
:10098000704700000010024030B500210022002412
:1009900000232D4D6D6805F00C0121B1042905D00F
:1009A000082923D105E0294D056022E0274D056087
:1009B0001FE0254D6D6805F47012234D6D6805F438
:1009C0008034022505EB92421CB9214D5543056048
:1009D0000BE01D4D6D6805F400351DB11C4D5543F0
:1009E000056002E0194D5543056002E0174D0560B2
:1009F00000BF00BF144D6D6805F0F0010909154DE9
:100A00006B5C0568DD4045600F4D6D6805F4E06185
:100A1000090A104D6B5C4568DD4085600A4D6D68C4
:100A200005F46051C90A0B4D6B5C4568DD40C5603B
:100A3000054D6D6805F44041890B074D6B5CC56839
:100A4000B5FBF3F5056130BD0010024000127A00DD
:100A500000093D001400002024000020704710B55C
:100A600000F002F810BD00000CB5002001900090CD
:100A70003348006840F480303149086000BF304896
:100A8000006800F4003000900198401C019000982C
:100A900018B90198B0F5A06FF1D12948006800F4A9
:100AA000003010B10120009001E00020009000987B
:100AB000012843D12348006840F010002149086014
:100AC0000846006820F0030008600846006840F00F
:100AD000020008601A4840681949486008464068A2
:100AE00048600846406840F48060486008464068B6
:100AF00020F47C1048600846406840F4E8104860E4
:100B00000846006840F08070086000BF0C4800682C
:100B100000F000700028F9D00948406820F0030078
:100B2000074948600846406840F00200486000BF3E
:100B30000348406800F00C000828F9D10CBD000003
:100B4000001002400020024030B50146B1F1807F24
:100B500001D3012030BD21F07F40401E4FF0E02244
:100B6000506150170F22002807DA13071D0E094B9A
:100B700000F00F04241F1D5503E013071C0E064B45
:100B80001C5400BF00204FF0E0229061072010614C
:100B90000020DFE718ED00E000E400E031B5104888
:100BA00000684FF47A71B0FBF1F52846FFF7CCFFEF
:100BB000002408E000BF4FF0E020006900F480301E
:100BC0000028F8D0641C00988442F3D34FF0E02052
:100BD000006920F001004FF0E021086138BD0000FD
:100BE0000000002010B500F043F810BD10B5064815
:100BF00000680649B0FBF1F42046FFF7A5FF08B1F5
:100C000000BFFEE710BD00000000002040420F00C2
:100C100010B51348006840F001001149086008460B
:100C20004068104908400E494860084600680E496F
:100C300008400B4908600846006820F480200860DE
:100C40000846406820F4FE0048604FF41F008860AA
:100C5000FFF705FF4FF000600449086010BD000079
:100C6000001002400000FFF8FFFFF6FE08ED00E074
:100C70000448006820B103480068401E014908602C
:100C8000704700002800002010B540F225510648AA
:100C900000F06DF838B1044800F024F9C4B22146E0
:100CA000014800F02AF910BD0038014021B18289C5
:100CB00042F40052828104E082894DF6FF731A40AB
:100CC0008281704700B585B001210420FFF74CFEFA
:100CD00001218803FFF748FE4FF40070ADF81000C3
:100CE00018208DF8130003208DF8120004A917486E
:100CF000FFF746FD4FF48060ADF8100004208DF83A
:100D0000130004A91148FFF73BFD4FF4E1300090B8
:100D10000020ADF80400ADF80600ADF80800ADF80D
:100D20000C000C20ADF80A006946094800F06EF886
:100D3000FFF7C3FD012240F22551054800F041F8BC
:100D400001210348FFF7B2FF05B000BD00080140D4
:100D50000038014002460020B1F5007F00D100BFFD
:100D600013880B400BB1012000E00020704770B5E4
:100D70000246002400230025002040F66A16B142F6
:100D800000D100BFC1F3421501F01F03012606FA8E
:100D900003F3012D02D19689334006E0022D02D1E2
:100DA000168A334001E0968A33400C12012606FA77
:100DB00004F41688344013B10CB1012000E0002087
:100DC00070BDF0B50346002400260025002040F643
:100DD0006A17B94200D100BF1846C1F3421401F0AE
:100DE0001F06012707FA06F5012C01D10C3004E09B
:100DF000022C01D1103000E014301AB107682F43E3
:100E0000076002E00768AF430760F0BD2DE9F047D7
:100E100086B005460E460024A24600BFA146002724
:100E2000B08900B100BF2F462C8A4CF6FF700440F9
:100E3000F08804432C82AC894EF6F3100440B0884D
:100E400031890843718908430443AC81AC8A4FF669
:100E5000FF400440B0890443AC8201A8FFF794FD31
:100E60001F48874202D1DDF810A001E0DDF80CA098
:100E7000A88900F4004040B10AEBCA0000EB0A1058
:100E800031684900B0FBF1F807E00AEBCA0000EB5B
:100E90000A1031688900B0FBF1F86420B8FBF0F06B
:100EA00004012009642101FB1089A88900F4004095
:100EB00040B1322000EBC900B0FBF1F000F00700B8
:100EC000044308E0322000EB09106421B0FBF1F08C
:100ED00000F00F0004432C8106B0BDE8F08700004D
:100EE0000038014001468888C0F308007047C1F30C
:100EF00008028280704700BFFEE770B504460D46C9
:100F000029462046FFF7F3FF00BF80212046FFF768
:100F100021FF0028F9D070BD2DE9FC4106460F469F
:100F20000024DA20855D012D03D0022D01D0032D90
:100F30002ED16B4601AA0121304600F0D1F90446BA
:100F40000198B0F57F0F03D80098B0F57F0F1FD937
:100F5000F4B92FB11049304602F043FA044617E0C5
:100F60000422FF21304601F01CF8044300227021C6
:100F7000304601F016F804430022FF21304601F00C
:100F800010F8044300228021304601F00AF804439F
:100F90002046BDE8FC8100001F010020F8B5064690
:100FA0000F460024002500BF01220B21304600F02F
:100FB000F8FF044600220B21304600F0F2FF044304
:100FC0006A461321304600F03DFC0443681CC5B25C
:100FD0009DF8000000F0070018B1032D01DA002C85
:100FE000E2D0032D01DB6FF00B042046F8BD0000BA
:100FF00070B592B0054600242CB9002288212846FD
:1010000000F0CFFF04460021F02041554FF47A70E4
:10101000A5F852014FF4C870A5F854015A48C5F814
:1010200058015A48C5F8D400296202A9284600F0A0
:10103000BFF8044654B900208DF808008DF8090067
:10104000402202A905F11000FFF76CF8642005F5B5
:101050009A7528804FF4617068804FF4FA70A88008
:101060004FF42060288101202877A5F59A75012288
:101070008021284600F095FF04430122FF212846E5
:1010800000F08FFF044300221146284600F089FF3C
:10109000044301AA9121284600F0D4FB04439DF8A3
:1010A000040085F83A0101220021284600F079FF6A
:1010B00004430022FF21284600F073FF044300226E
:1010C0008021284600F06DFF0443002609E034B972
:1010D000B1B20122284600F0DEFC044300E002E049
:1010E000761C062EF3DB00BF2CB900220221284615
:1010F00000F0D1FC04462CB900220321284600F060
:10110000CAFC04462CB900220421284600F0C3FC86
:1011100004462CB900220521284600F0BCFC0446F8
:1011200034B94FF490120021284600F015FD044612
:1011300034B94FF480420121284600F00DFD0446E9
:1011400034B94FF40C120221284600F005FD044684
:101150002CB900220321284600F0FEFC04465CB9AD
:10116000FF2085F83001FF220121284600F019FFF9
:101170000446012085F8320114B9002185F81511C3
:10118000204612B070BD0000856B0100A4700900FC
:1011900070B504460D4600262946204601F01CFA8B
:1011A0000646304670BD02460020137C0B70704727
:1011B0002DE9F04107460D46002429463846FFF741
:1011C000F2FF04462CB905F10801384600F051F849
:1011D00004460CB9002028732CB905F110013846DB
:1011E00000F0AEFA04462CB905F11401384600F0BF
:1011F00037F90446E4B9002617E04CB905F124009C
:1012000000EB8602B1B2384600F099F8044300E0E2
:101210000DE044B905F118008219B1B2384600F06A
:1012200080F8044300E002E0761C062EE5DB00BFF8
:101230002CB905F13C01384600F05DFA044624B9AA
:10124000291D384600F001F904462046BDE8F0812A
:1012500070B506460C46002522460921304600F0AE
:10126000F1FA05461DB9207800F0010020702846EB
:1012700070BD7CB506460C46002501AAF821304613
:1012800000F00CFB05462DB96A460421304600F0FB
:10129000EFFA054655B9BDF8040028B1BDF80410B1
:1012A0000098B0FBF1F020602168B16128467CBD58
:1012B000F8B505460C4600266A461321284600F07C
:1012C000C1FA06469DF8000000F0070020609DF876
:1012D000000000F0180008B16FF005063046F8BDB8
:1012E0002DE9F8430746884614461D4600266A46FF
:1012F0000E21384600F0D2FA0646BDF8000000057F
:10130000C008206056B96A460C21384600F0C6FA7B
:101310000646BDF800000005C00828603046BDE85C
:10132000F88330B503460020062903DB001F0025A3
:10133000157003E003F128056C5C147030BD2DE9D5
:10134000F84305460E4617464FF00008C146062EE4
:101350002FD2DFE806F00307161A1E1F6C6B4FF042
:10136000000929E06A464421284600F097FA8046A1
:10137000B8F1000F02D1BDF8000044024FF001099E
:101380001AE0EC6B4FF0000916E02C6C4FF00009EE
:1013900012E000BF6A466421284600F07FFA8046CA
:1013A000B8F1000F02D1BDF8000044024FF000096F
:1013B00002E06FF0030800BF00BFB8F1000F16D1C4
:1013C000B9F1010F12D144B905F1340050F82640AB
:1013D0003C6000210C38815509E03C6005F1340087
:1013E00040F8264001210C38815500E03C60404621
:1013F000BDE8F8832DE9FC4105460C460026DA20BD
:10140000475D042F0DD169462846FFF751FF064678
:101410000098042802D10120207013E000202070E1
:1014200010E001AA1421284600F00CFA06464EB935
:101430009DF8040000F0010010B10120207001E0CF
:10144000002020703046BDE8FC8170B504460D4692
:1014500000262946204601F0D2FB0646304670BDE4
:1014600070B504460D4600262946204601F03EFC94
:101470000646304670BD70B504460D460026294626
:10148000204601F05FFC0646304670BD70B504464C
:101490000D4600262946204601F0D4FE0646304679
:1014A00070BD2DE9F04F93B005460C464FF0000893
:1014B0000C230AAA1421284600F006FA8046B8F147
:1014C000000F7DD10020A07520609DF833009DF8AD
:1014D000321000EB012087B2002060609DF82F00E1
:1014E0009DF82E1000EB01200004C609E6609DF86F
:1014F00031009DF8301000EB012080B20F900F9862
:10150000400220619DF82B009DF82A1000EB01207D
:101510001FFA80F9A4F814909DF828001290B5F8ED
:1015200052010D9095F831B10D98B0F57A7F2AD01F
:101530000D98784300F5FA704FF47A7190FBF1F052
:1015400087B2288C80B20E90287F10901098D0B16E
:101550000E9800FB09F0A6EB202040B9BBF1000F6C
:1015600002D042F2B82A0DE048F6E02A0AE007FB72
:1015700006F10E9800FB09F0A6EB2020B1FBF0F07D
:101580001FFA80FA5746BBF1000F05D0B810208132
:10159000B807000EE07502E027810020E07511A871
:1015A0004B463246CDE900402846129901F030FD05
:1015B00040EA0808B8F1000F02D19DF844002076F7
:1015C000B8F1000F20D11C2205F1500103A8FEF74D
:1015D000A9FD2089ADF81400E07D8DF82300608915
:1015E000ADF8160060680490E068069020690790E6
:1015F000A08AADF82000207E8DF824001C2203A9CB
:1016000005F15000FEF78EFD404613B0BDE8F08FA7
:10161000F8B506460C460025002000906A460121D8
:10162000304600F00FF905463DB923469DF80020ED
:101630000021304603F068FB05463DB9A31C9DF828
:1016400000200121304603F05FFB05463DB9631CD5
:101650009DF800200221304603F056FB05463DB9B7
:10166000E31C9DF800200321304603F04DFB0546A6
:101670003DB9231D9DF800200421304603F044FBB2
:1016800005462846F8BD2DE9F843804689461546AB
:101690000026002400276A464946404603F070F8B9
:1016A0000646B6B94FF47A710098B0FBF1F404EB3A
:1016B0004400C0EBC4100099A1EBC007C7EB074082
:1016C00000F5FA704FF47A71B0FBF1F000EB0440D2
:1016D00028603046BDE8F8832DE9F04104460D4608
:1016E0001646002732462946204601F03CFE0746B2
:1016F0003846BDE8F081F8B506460C4600256A4636
:101700000121304600F09EF805466DB99DF80000B5
:1017100086F830019DF8000000F0800010B1012033
:10172000207001E00020207015B9217886F84C1057
:101730002846F8BD10B502460020137F0B7010BD7F
:10174000F8B504460E4600276A462021204600F0E0
:10175000A5F8074677B9BDF8000020B9256A3560BD
:101760000021217706E0BDF80000C5003560256244
:10177000012121773846F8BD2DE9F04104460D4698
:1017800016460027012332462946204601F0FCFE7A
:1017900007463846BDE8F0812DE9F04104460D4684
:1017A0001646002732462946204601F013FF074619
:1017B0003846BDE8F08138B505460024694628461C
:1017C000FFF7F1FC044634B99DF8000018B928462B
:1017D00000F06AFA04461CB9284601F077FE044678
:1017E0002CB99DF8000010B9032085F8320120467D
:1017F00038BD70B505460E4600240021284600F08D
:101800007EF804461CB92846FFF7D5FF044624B9E4
:1018100031462846FFF745FE044624B900212846F4
:10182000FFF7BCFB0446204670BD08B5014600200A
:101830000022009202E0009A521C0092009AFA2ABA
:10184000F9D308BD2DE9F04704460D46164600279A
:1018500094F85C9132462946484602F063F8804687
:10186000B8F1000F01D06FF013073846BDE8F087DC
:101870002DE9F04704460D461646002794F85C9182
:1018800032462946484602F05FF88046B8F1000F1C
:1018900001D06FF013073846BDE8F0872DE9F04717
:1018A00004460D461646002794F85C9132462946B8
:1018B000484602F07AF88046B8F1000F01D06FF088
:1018C00013073846BDE8F0872DE9F04705468846FE
:1018D00091461E464FF0000A402E01D36FF0030AD6
:1018E00095F85C7133464A464146384602F049F85D
:1018F00004460CB16FF0130A5046BDE8F08702466B
:10190000002003290BD003DC39B101290BD105E0FC
:10191000142905D0152906D103E000BF00BF00BF80
:1019200000BF117402E06FF0070000BF00BF7047F6
:101930002DE9F0478046894617461E46DDF820A06F
:101940000024B9F1000F02D06FF00904A0E0142FB9
:101950000CD1BAF1000F01D1102500E001252A4673
:101960008421404600F01DFB044691E0152F5AD11A
:101970000122FF21404600F014FB044300221146DF
:10198000404600F00EFB04430022FF21404600F0D9
:1019900008FB044301228021404600F002FB04437F
:1019A00002228521404600F0FCFA04430422FF2174
:1019B000404600F0F6FA04430022CD21404600F0F4
:1019C000F0FA04431122CC21404600F0EAFA044325
:1019D0000722FF21404600F0E4FA04430022BE2122
:1019E000404600F0DEFA04430622FF21404600F0A4
:1019F000D8FA04430922CC21404600F0D2FA04432D
:101A00000022FF21404600F0CCFA04430122FF21CE
:101A1000404600F0C6FA044300221146404600F05A
:101A2000C0FA044334E0A4B9052E0ED2DFE806F074
:101A3000030507090B0000250AE0012508E002253F
:101A400006E0032504E0042502E06FF00A0400BF6D
:101A500000BF2CB92A460A21404600F0A2FA0446EB
:101A600064B9BAF1000F01D1002500E010252B4622
:101A7000EF228421404600F06BFA044614B9DA20C4
:101A800000F8086024B900214046FFF787FA0446B1
:101A90002046BDE8F0872DE9F05F04460D46164666
:101AA0004FF00009CB460027BA46062D02DB6FF047
:101AB000030941E02EB94FF0000B00274FF0010A57
:101AC00006E004F1340050F825B04FF0000A012779
:101AD000062D2DD2DFE805F003060E111420282074
:101AE000075528E0CBF34F224421204600F06FFA3F
:101AF000814620E084F82A701DE084F82B701AE0FB
:101B00004FEA4A604FEA10684346FE2260212046B1
:101B100000F01EFA81460EE04FEA0A704FEA1068A4
:101B20004346EF226021204600F012FA814602E08F
:101B30006FF0030900BF00BFB9F1000F09D126B94A
:101B4000002104F12800415503E0012104F128009F
:101B500041554846BDE8F09F2DE9F04105460E4647
:101B60001446002705F1280010F80680B8F1000F90
:101B700003D10C3040F8264026E0062E1BD2DFE8C9
:101B800006F003050D0F11126C6317E0C4F34F222A
:101B90004421284600F01BFA07460FE0EC630DE0F5
:101BA0002C640BE000BFC4F34F226421284600F0F0
:101BB0000EFA074602E06FF0030700BF00BF1FB92F
:101BC00005F1340040F826403846BDE8F08170B594
:101BD00004460D4600262946204601F053FF0646DE
:101BE000304670BD2DE9F84307460D469046002665
:101BF0000020009000246A4601213846FFF722FEAB
:101C000006469DF80040002E36D1B8F1010F19D1DB
:101C1000052D13D2DFE805F00306090C0F0044F090
:101C200010040EE044F028040BE044F0040408E043
:101C300044F0400405E044F0800402E06FF0030645
:101C400000BF19E0052D13D2DFE805F00306090CEB
:101C50000F0004F0EF040EE004F0D7040BE004F0F2
:101C6000FB0408E004F0BF0405E004F07F0402E098
:101C70006FF0030600BF00BF9DF80000844210D043
:101C80002EB922460121384600F08BF906460EB9DE
:101C900087F830412EB9D7F8149049463846FFF7F7
:101CA00096FF3046BDE8F8832DE9FC410646002446
:101CB000012701A93046FFF776FA0122802130463C
:101CC00000F06FF904460122FF21304600F069F967
:101CD000044600221146304600F063F9044696F8A7
:101CE0003A219121304600F05CF90446012200219E
:101CF000304600F056F904460022FF21304600F03D
:101D000050F9044600228021304600F04AF904468A
:101D10009DF8040020B1012821D0032841D12FE0F3
:101D200001220021304600F03CF904460097ACB98E
:101D3000002500BF2DB16A4600213046FFF782FD25
:101D400004466D1C9DF800003840B84202D10CB921
:101D5000C82DEFD3C82D01D36FF0060424E024B9B9
:101D600001213046FFF7D8F8044602220021304610
:101D700000F017F9044614B9042086F8320113E084
:101D800024B901213046FFF7C7F804460422002198
:101D9000304600F006F9044614B9042086F83201F2
:101DA00002E06FF0070400BF00BF2046BDE8FC81E1
:101DB0002DE9F04397B005460024402107A8FEF71F
:101DC000CAF90020069005908146002704900390F0
:101DD00000260121284600F06DFC044695F8137199
:101DE00095F81461012E05DC01D1202F02D846B9E7
:101DF0000C2F06D904AA03A9284601F0EBFB0446E0
:101E000005E032463946284601F0D0FE0446DFF8A8
:101E10003C814CB995F85091B9F1000F02D1D5F839
:101E20004C8101E0DFF8248124B94146284601F0C5
:101E3000D8FA044644B90020042302460146009023
:101E40002846FFF775FD04468CB90122FF2128467C
:101E500000F0A7F8044606AA84212846FFF71EFDD5
:101E600004430022FF21284600F09BF8044324B9D4
:101E7000BDF818000001C5F8D40024B907A9284608
:101E8000FFF796F904464CB905A92846FFF7E0F993
:101E900004461CB99DF8140085F831012CB9402284
:101EA00007A905F11000FEF73DF954B905AA012173
:101EB0002846FFF7C7FC04461CB99DF8140085F8B6
:101EC00030012CB9002211462846FFF78BFE04464C
:101ED0002CB9002202212846FFF784FE044614B9DB
:101EE000032085F832012CB902AA00212846FFF709
:101EF000F3FB04461CB99DF80810E82041552CB9A5
:101F000002AA01212846FFF7E7FB04461CB99DF809
:101F10000810E02041552CB901AA03212846FFF7FB
:101F2000B2FB044614B9E420019941512CB901AA2D
:101F300004212846FFF7A7FB044614B9DC200199C9
:101F40004151204617B0BDE8F08300002C0000206E
:101F50002DE9F84F0446894615461E46002794F899
:101F60005CA16A464946504601F0DCFC8046B8F167
:101F7000000F01D06FF0130787B99DF800002840CB
:101F8000304300909DF800204946504601F06FFE16
:101F90008046B8F1000F01D06FF013073846BDE856
:101FA000F88F2DE9F04704460D461646002794F8B1
:101FB0005C9132462946484601F059FE8046B8F108
:101FC000000F01D06FF013073846BDE8F0872DE908
:101FD000F04704460D461646002794F85C913246B9
:101FE0002946484601F065FE8046B8F1000F01D051
:101FF0006FF013073846BDE8F0872DE9F047044637
:102000000F4690461D464FF00009CA46402D01D3A9
:102010006FF0030994F85C612B464246394630461E
:1020200001F033FE8246BAF1000F01D06FF01309C0
:102030004846BDE8F08700002DE9FF4F90B01746F5
:10204000DDF8788012200F904FF480400E904220EF
:102050000D9006200C9007200B9000200090109807
:10206000B0F854010A901098D0F858010990DDE9B1
:10207000091000FB01FA0AF180004FEA102A0A98C1
:102080000AFB00FA00256FB11198800201900198B7
:1020900000EB5705B5FBF7F505EB45056D4305F579
:1020A0000040050C1D99139848430890089800F5C6
:1020B0000040000C089008984043089008F5004044
:1020C000000C02900298C01C0621B0FBF1F00290B7
:1020D0000298C0EBC00002900298B0F5803F02D396
:1020E000374807900DE008F103000621B0FBF1F836
:1020F000C8EBC80808F50040000C0790079840435B
:10210000079040F22710059005984043059041F252
:10211000041004900498083000090490DDE90410CC
:10212000401A0590059800EB4000000106900698C3
:1021300000F50050800B0690DDE9071044181F9849
:1021400004EB50041F98B4FBF0F4A403069804EBCE
:1021500050040698B4FBF0F46C4304F5FA704FF4A5
:102160007A71B0FBF1F4240104F5FA70B0FBF1F4DC
:102170004FF04009B9F1000F05D00AEB5900B0FB50
:10218000F9F0039001E000200390039801F013F9A7
:10219000834624B10AEB5400B0FBF4F600E00026BD
:1021A000304601F008F906462098C0F800B0B34563
:1021B00001D920980660009814B0BDE8F08F0000A7
:1021C0000000F0FFE0B5064640F277634FF410627E
:1021D00002FB01F5A5FB0307E0BD00002DE9FF4F61
:1021E000A7B004464FF4487026904FF4167025901F
:1021F0004220249041F25C202390A14822904FF489
:10220000704021909F4820909F481F904FF40040BD
:102210001E904FF448101D9040F277601C9000BF54
:10222000206A1290289800694FF47A714843000C94
:1022300013902898C06809900AAA2046289901F0AE
:1022400061F812AA2046289901F070F810904FF416
:102250007A710A9800FB01F707F50040070C129805
:10226000484311901198B0F5481F02D94FF4481017
:1022700011901098002842D1DC2000591A90E020DB
:10228000005D05902046059A1A9900F0FFF8079026
:10229000E42000591990E820005D04902046049A3B
:1022A000199900F0F3F80690032008900598082883
:1022B00001D1022008900898C002DDE906121144FD
:1022C00000FB01FB0BF5FA704FF47A71B0FBF1FBE8
:1022D00040F277600BFB00FB0BF5FA70B0FBF1FBF3
:1022E0000A988030000A0A900A9800FB0BF01B90B5
:1022F0001B988030000A1B900A9800020A901098E0
:1023000018B110982BB0BDE8F08F4FB95C492998EF
:1023100001600846C4F8400100212A980160ACE041
:102320001B9808B901201B904FF44870189013981F
:102330000004B0FBF7F65348864200D906464FF436
:10234000167046431B9901EB4101880001F033F8F8
:1023500040001790289800894B49484316901198DF
:10236000C0EB074000F5FA704FF47A71B0FBF1F062
:102370000F90119800EB074000F5FA70B0FBF1F1F7
:102380000E910F9800020F90DDE90E12B2FBF1F0F2
:10239000002801DB014600E041421491149800023C
:1023A000149041F25C211698B0FBF1F51498C0F539
:1023B0008030454305F50040050C05F580356D0876
:1023C0006D43AD0B189805FB00F909F500404FEA85
:1023D000104909FB09F9B2460AF500404FEA104AD4
:1023E0000AFB0AFA09EB0A000D900D9800F0E3FFD2
:1023F0000C900C9800040C900C9832306421B0FBC7
:10240000F1F11798B1FBF0F840F6B53008FB00F891
:1024100041F2883080444000B8FBF0F8B8F5704FC6
:1024200001D94FF4704808FB08F941F2041A09EB8E
:102430000A0000F0C0FF0B904FF47A710B984843EC
:1024400015902FB11B9818B10D491598884201D9E4
:102450000B48159029991598086029980068C4F8C8
:10246000400118992A982B468DE84208039020468F
:10247000DDE90921FFF7E0FD1090109842E7000028
:10248000AE878F02666666009A9906002DE9F043D2
:1024900007460C46154600BF29463846FFF792FE10
:1024A000814609F5FA704FF47A71B0FBF1F60846EF
:1024B000604300EB5600B0FBF6F84046BDE8F08301
:1024C0002DE9F04307460C4615464FF00008294613
:1024D0003846FFF777FE814609F5FA704FF47A71B6
:1024E000B0FBF1F604FB06F000EB5600B0FBF1F890
:1024F0004046BDE8F08300002DE9F04704460D4654
:10250000164600270221204600F0D4F80746AFB94E
:1025100094F8F180B8F1000F06D10020287009A0CE
:10252000007886F8400009E0F220005D287004F190
:10253000F309494606F14000FDF718FE3846BDE8AC
:10254000F08700000000000001460020CAB20B0A1C
:102550009A40501C7047014600204A1C5206100E3B
:102560007047F8B506460024002283213046FFF765
:1025700018FD0443A4B9002500BF6A4683213046F4
:10258000FFF760F904469DF8000000B904B102E0CD
:102590006D1CC82DF1D300BFC82D01D36FF0060408
:1025A000012283213046FFF7FCFC04432046F8BD9E
:1025B00010B5014600200022002361B14A1E02E04E
:1025C00052085C1CA3B222F0FF04002CF8D1144680
:1025D00063F31F24A0B210BD7CB506460C4600254F
:1025E000224669463046FFF787FF0546002D26D173
:1025F0009DF8000020B91EA12046FDF7B7FD19E0A7
:102600009DF80000222808DC9DF80000202804D056
:102610001AA12046FDF7AAFD0CE09DF8000027282E
:1026200004DA19A12046FDF7A1FD03E019A1204617
:10263000FDF79CFD1DA104F12000FDF797FD35B9C4
:1026400004F16002C0213046FFF7FCF805466DB981
:1026500001AAC2213046FFF7F5F80546012084F8AB
:1026600061009DF80400000984F8620028467CBDE2
:10267000564C35334C30582054533000564C35337B
:102680004C30582054533100564C35334C30582080
:1026900054533200564C35334C305820455331207A
:1026A0006F72206C6174657200000000564C353307
:1026B0004C3058002DE9F04F93B005460F460024EA
:1026C00000200E900D900C900B90824683464FF4A4
:1026D000C8500A904FF00009002009900290F020A5
:1026E000465D072E7ED0012280212846FFF759FC47
:1026F00004430122FF212846FFF753FC0443002234
:1027000011462846FFF74DFC04430622FF212846C8
:10271000FFF747FC044312AA83212846FFF792F8EB
:1027200004439DF8480040F0040283212846FFF747
:1027300038FC04430722FF212846FFF732FC0443FC
:10274000012281212846FFF72CFC04432846FFF78D
:102750006CF80443012280212846FFF722FC044341
:1027600007F00100002855D006F00100002851D1E3
:102770006B2294212846FFF714FC04432846FFF7F8
:10278000F0FE044311AA90212846FFF771F8044394
:102790001198C0F306200E901198C0F3C0300D9030
:1027A000242294212846FFF7FCFB04432846FFF728
:1027B000D8FE044311AA90212846FFF759F8044394
:1027C0001198000E8DF800001198000C8DF8010092
:1027D0001198000A8DF802001198C0B28DF803001C
:1027E000252200E0A4E194212846FFF7DAFB044308
:1027F0002846FFF7B6FE044311AA90212846FFF7AA
:1028000037F804431198000E8DF804001198000C5D
:102810008DF8050007F0020002287DD106F00200C5
:102820000028FAD1022294212846FFF7BAFB04437C
:102830002846FFF796FE044310AA90212846FFF78A
:1028400001F804437B2294212846FFF7AAFB0443A6
:102850002846FFF786FE04430FAA90212846FEF77C
:10286000F1FF0443772294212846FFF79AFB0443A3
:102870002846FFF776FE044311AA90212846FEF76A
:10288000F7FF04437F21119801EA50608DF8100092
:102890001198C0F386408DF811001198C0F3C6203E
:1028A0008DF812001198C0F306108DF813001198DE
:1028B0000007400E1290782294212846FFF771FB02
:1028C00004432846FFF74DFE044311AA90212846F1
:1028D000FEF7CEFF04437F21119801EA50709DF866
:1028E00048100844C0B28DF814001198C0F3865007
:1028F0008DF815001198C0F3C6308DF816001198A8
:10290000C0F306208DF817001198C0F346008DF82B
:1029100018001198C00700E05FE0400E1290792285
:1029200094212846FFF73DFB04432846FFF719FE94
:10293000044311AA90212846FEF79AFF04437F2101
:10294000119801EA90609DF848100844C0B28DF8D3
:1029500019001198C0F3C6408DF81A001198C0F301
:1029600006308DF81B001198C0F346108DF81C003E
:102970001198C006400E12907A2294212846FFF743
:1029800010FB04432846FFF7ECFD044311AA9021F5
:102990002846FEF76DFF04437F21119801EA9070ED
:1029A0009DF848100844C0B28DF81D001198C0F37E
:1029B000C6508DF81E001198C0F306408DF81F0018
:1029C0001198C0F346208DF820001198C0F38600BE
:1029D0008DF8210000208DF8220007F00400042863
:1029E00073D106F0040000286FD17B229421284681
:1029F000FFF7D7FA04432846FFF7B3FD04430CAAB8
:102A000090212846FEF734FF04437C229421284677
:102A1000FFF7C7FA04432846FFF7A3FD04430BAAB8
:102A200090212846FEF724FF044373229421284670
:102A3000FFF7B7FA04432846FFF793FD044311AAB2
:102A400090212846FEF714FF044311980006000C5D
:102A50000990742294212846FFF7A3FA04432846DC
:102A6000FFF77FFD044311AA90212846FEF700FFDF
:102A700004431199099840EA116009907522942144
:102A80002846FFF78EFA04432846FFF76AFD044301
:102A900011AA90212846FEF7EBFE04431198000688
:102AA0004FEA1049762294212846FFF77AFA044328
:102AB0002846FFF756FD044311AA90212846FEF749
:102AC000D7FE0443119849EA106900228121284663
:102AD000FFF767FA04430622FF212846FFF761FA51
:102AE000044312AA83212846FEF7ACFE04439DF856
:102AF000480000F0FB0283212846FFF752FA044306
:102B00000122FF212846FFF74CFA0443012200214D
:102B10002846FFF746FA04430022FF212846FFF724
:102B200040FA0443002280212846FFF73AFA044382
:102B3000002C60D1072E5ED007F00100A8B106F08E
:102B4000010090B90E9885F813010D9885F81401CD
:102B5000A04607E01DF8081005F5957000F808106C
:102B600008F10108B8F1060FF4DB07F002000228B3
:102B700011D106F0020070B99DF84010F1204155C6
:102B80009DF83C10F220415505F1F300039004A993
:102B90000398FDF7EBFA07F00400042824D106F0AF
:102BA000040008BB4FF48C700C994151001D0B9927
:102BB00041510998400202904FF490710298485197
:102BC0004FF0000BB9F1000F0CD00A98A9EB000AE6
:102BD0004FF47A700AFB00F04FEA101BCBF10000B3
:102BE0000FFA80FBC5F80CB046EA070012909DF87A
:102BF0004810F0204155204613B0BDE8F08F2DE974
:102C0000F04F87B006460C4600254FF4FA6003905B
:102C100040F276774FF470784FF4257940F24E2ADF
:102C200040F2B22B4846029040F22620019000204C
:102C3000009007EB0800206005A93046FEF7E8FC8D
:102C400005461DB1284607B0BDE8F08F9DF8140079
:102C500028B99DF8150010B99DF8160008B303AA0D
:102C60000221304601F08CFD0546D5B99DF81400CF
:102C700020B1206803995144084420609DF8160053
:102C800038B1206803995944022202FB01002060F8
:102C900007E09DF8150020B12068039949440844D5
:102CA000206075B99DF8170058B16A460321304677
:102CB00001F066FD05462168009A02981044084418
:102CC000206075B99DF8180058B104AA0421304657
:102CD00001F056FD05462168049A01981044084405
:102CE00020600DB9216871612846ACE72DE9F843F1
:102CF00006460C46002540F2FF774FF480586A469E
:102D000028213046FEF7CAFD0546BDB9BDF80000D2
:102D1000C0F30B000090BDF80000B84208DDBDF81C
:102D20000000A0EB080000B2FA214843206005E053
:102D3000BDF8000000B2FA21484320602846BDE8F3
:102D4000F883000070B504460D460026204614F1B5
:102D5000080F54D01DDC10F1140F64D00CDC10F1FE
:102D6000630F77D010F1320F6FD010F1280F64D0BD
:102D700010F11E0F73D15BE010F10C0F30D010F189
:102D80000B0F4BD010F10A0F43D010F1090F66D191
:102D90003AE0C01D082862D2DFE800F02C271D1899
:102DA000130E090432A12846FDF7E0F95CE033A1D7
:102DB0002846FDF7DBF957E037A12846FDF7D6F99D
:102DC00052E03AA12846FDF7D1F94DE03BA1284653
:102DD000FDF7CCF948E040A12846FDF7C7F943E0EC
:102DE00042A12846FDF7C2F93EE046A12846FDF77C
:102DF000BDF939E046A12846FDF7B8F934E048A10D
:102E00002846FDF7B3F92FE04CA12846FDF7AEF9AF
:102E10002AE04FA12846FDF7A9F925E051A128464F
:102E2000FDF7A4F920E056A12846FDF79FF91BE025
:102E300059A12846FDF79AF916E05DA12846FDF74D
:102E400095F911E006E000E009E05FA12846FDF7F2
:102E50008DF909E063A12846FDF788F904E067A130
:102E60002846FDF783F900BF00BF304670BD000063
:102E70004E6F204572726F720000000043616C69F2
:102E800062726174696F6E205761726E696E67203D
:102E90004572726F720000004D696E20636C69703C
:102EA000706564206572726F72000000556E646513
:102EB00066696E6564206572726F7200496E766134
:102EC0006C696420706172616D65746572732065F0
:102ED00072726F72000000004E6F74207375707014
:102EE0006F72746564206572726F7200496E7465EA
:102EF0007272757074206E6F7420436C65617265B8
:102F00006400000052616E6765206572726F720026
:102F100054696D65206F7574206572726F72000060
:102F20004D6F6465206E6F7420737570706F72746E
:102F30006564206572726F720000000042756666FB
:102F4000657220746F6F20736D616C6C00000000FF
:102F50004750494F206E6F74206578697374696EAD
:102F6000670000004750494F2066756E6374206EFD
:102F70006F7420737570706F727465640000000068
:102F8000436F6E74726F6C20496E74657266616314
:102F900065204572726F7200496E76616C696420BB
:102FA000436F6D6D616E64204572726F7200000038
:102FB0004469766973696F6E206279207A65726FF1
:102FC000204572726F7200005265666572656E63AD
:102FD00065205370616420496E6974204572726F78
:102FE000720000004E6F7420696D706C656D656EC7
:102FF000746564206572726F72000000556E6B6EAE
:103000006F776E204572726F7220436F64650000A7
:103010002DE9FF4F8FB007469946DDE91CA6002534
:1030200000200E900D900C900B900A900990089043
:103030000024029001901098C0F3C3045CB1052CE9
:1030400009D0072C07D00C2C05D00D2C03D00E2C4A
:1030500001D00F2C02D14FF0010B01E04FF0000B1B
:103060002DB90122FF213846FEF79BFF05462DB9F9
:1030700002AAB6213846FEF711FC0546BDF8080045
:10308000400200902DB90022FF213846FEF789FF4B
:1030900005460098C7F848012DB90BAA002138460B
:1030A000FEF73FF905469DF82C00D0B1CDB901AB34
:1030B00007AA51463846FFF791F8054615B9019819
:1030C000AAF80A006DB906AA00213846FEF737F9BA
:1030D0000546069828B1DDE90610884201D901208D
:1030E0000E902DB909AA02213846FEF71AF90546B5
:1030F0009DF8240070B16DB905AA02213846FEF78B
:103100001EF90546059828B105990098884201D90D
:1031100001200D902DB908AA03213846FEF701F9C8
:1031200005469DF82000C8B1C5B9B9F1000F02D11C
:103130000020039004E011980002B0FBF9F0039026
:1031400004AA03213846FEF7FAF80546049828B188
:10315000DDE90301884201D201200C9035BBBBF1AF
:10316000010F02D1FF20307028E0012C03D0022C87
:1031700001D0032C02D1052030701FE0062C01D0B5
:10318000092C02D10420307018E0082C04D00A2C3D
:1031900002D00D98012802D1032030700EE0042CDB
:1031A00002D00C98012802D10220307006E00E985F
:1031B000012801D1307001E000203070307810B962
:1031C0000020AAF80A000AAA01213846FEF7A9F849
:1031D000054675BB9DF82C0010B10E98012802D150
:1031E0004FF0010801E04FF0000887F82E80042C12
:1031F00002D09DF8280010B94FF0010801E04FF00F
:10320000000887F82F809DF8240010B10D98012840
:1032100002D14FF0010801E04FF0000887F830803C
:103220009DF8200010B10C98012803D14FF001083F
:1032300002E003E04FF0000887F83180284613B021
:10324000BDE8F08F70B504460D460026062C22D24C
:10325000DFE804F003080D12171C13A12846FCF741
:1032600085FF1DE013A12846FCF780FF18E014A19C
:103270002846FCF77BFF13E014A12846FCF776FFF5
:103280000EE016A12846FCF771FF09E016A12846BA
:10329000FCF76CFF04E018A12846FCF767FF00BFAD
:1032A00000BF304670BD000052616E6765205661F8
:1032B0006C6964005369676D61204661696C000048
:1032C0005369676E616C204661696C004D696E20C0
:1032D00052616E6765204661696C000050686173D9
:1032E00065204661696C00004861726477617265AF
:1032F000204661696C0000004E6F20557064617457
:1033000065000000F8B507460D4614460026E8683B
:1033100020606A462946384600F008F806461EB97D
:1033200020680099084420603046F8BD2DE9F84334
:1033300005460E46144600270020206069462846B0
:10334000FEF7F8F907465FB99DF8000040B1D5F8DF
:103350002080B08A00FB08F909F18000000A206093
:103360003846BDE8F883F8B507460C4615460026F2
:1033700014B1012C0ED106E06A4650213846FEF702
:1033800061FA064609E06A4670213846FEF75AFAA5
:10339000064602E06FF0030600BF00BF26B99DF8A5
:1033A0000000FFF7D8F828703046F8BD10B501F0DE
:1033B0009DFA002010BD024600204FF0804100E041
:1033C00089089142FCD809E04318934204D8431875
:1033D000D21A01EB500000E0400889080029F3D11F
:1033E00070472DE9FF5F06460D460020039000243C
:1033F00063E02F5D641CFF2F44D1285D0290641CA4
:10340000029830B1012811D002281CD0032834D1F1
:1034100026E015F80480641C15F80490641C09EB80
:1034200008201FFA80FAA6F834A12AE015F80480D3
:10343000641C15F80490641C09EB08201FFA80FA3C
:10344000A6F836A11DE015F80480641C15F8049058
:10345000641C09EB08201FFA80FAA6F838A110E0D6
:1034600015F80480641C15F80490641C09EB08200E
:103470001FFA80FAA6F83CA103E06FF00300039066
:1034800000BF1AE0042F15DC285D0190641C4FF08A
:10349000000B05E0285D0DF80B00641C0BF1010B1F
:1034A000BB45F7DB3B466A4630460199FEF7A5FD72
:1034B000039002E06FF003000390285D10B10398C1
:1034C000002896D0039804B0BDE8F09FF8B50646F2
:1034D000002400200090002500BF69463046FDF71B
:1034E00089FF044604B10EE09DF80000012800D1D8
:1034F00009E06D1CC82D02D36FF0060403E03046CE
:10350000FEF793F9E9E700BF2046F8BD2DE9F04F3B
:1035100085B005460E4690461F460024A146A246A9
:10352000A3460FB195F83091022201212846FEF7FB
:1035300038FD044624B90021284600F094F90446D9
:103540008CB9B8F1010F0ED10120002104AA5B460D
:10355000CDE90026CDE9021052460146284600F08A
:1035600039FA044601E0002030704CB947B14A46B0
:1035700001212846FEF715FD04460CB985F8309167
:10358000204605B0BDE8F08F2DE9F0470546894695
:1035900016461F460024A04695F8308100233A467F
:1035A0004946284600F07FF9044634B900233A46DC
:1035B00031462846FFF7AAFF044644B94246012196
:1035C0002846FEF7EEFC04460CB985F8308120460B
:1035D000BDE8F0872DE9F74F94B0044600254FF081
:1035E000B40B032011902C201090002600200F9087
:1035F0000E904FF42067804681464FF0060A0C90EB
:103600000B900A900990089007900690B4F83C71CE
:1036100000BF06E0002104F5927000F8091009F1DE
:103620000109D145F6D30122FF212046FEF7B9FC5E
:1036300005462DB900224F212046FEF7B2FC054673
:103640002DB92C224E212046FEF7ABFC05462DB9A4
:103650000022FF212046FEF7A4FC05462DB95A465C
:10366000B6212046FEF79DFC05462DB9002280219B
:103670002046FEF796FC054635B9002308AA09A99D
:103680002046FFF781FF05468DB900260F96B0460C
:103690000FA91198CDE900ABCDE902600491414634
:1036A00004F592739A1D204600F0A9FF0546002DEF
:1036B00044D10F9E0DA9204601F0CAFA0546002DFF
:1036C0003AD1BDF83400B84236DDA94606E0002103
:1036D00004F5927000F8091009F10109D145F6D3FB
:1036E00000E0761C0BEB060001F08EFA10B9109882
:1036F0008642F6D34FF001080FA91198CDE900AB2F
:10370000CDE902600491414604F592739A1D20466A
:1037100000F075FF05468DB90F9E0DA9204601F0FA
:1037200097FA054655B9BDF83400B84206DD0120C8
:1037300006901198079001E04FF00008002D7CD111
:10374000BDF83400B84278DA08F0FF00069011980E
:103750000790524604F5927112A8FCF7E3FCBDF8FD
:103760003410C81B002801DB014600E041420B91E8
:1037700000200A905DE00EAB3246514604F595708C
:1037800000F0BEFF0E98401C10B96FF0310553E0F9
:103790000798401C07900E990BEB010001F034FADA
:1037A000404502D06FF0310546E00E9E324651464C
:1037B00004F5927000F079FF054635B9761C04F5E2
:1037C0009271204601F0C4FA054605B134E00DA916
:1037D000204601F03DFA054605B12DE0BDF8341054
:1037E000C81B002801DB014600E041420C91BDF8F6
:1037F0003400B84215DDDDE90B1088420DD912A95D
:10380000204601F0A5FA0546524612A904F5927029
:10381000FCF788FC0798401E079001200A9008E0FA
:103820000BE00C980B90524604F5927112A8FCF72D
:1038300079FC0A9800289ED000BF85B91599079891
:103840000860169906980870012184F815111598DA
:10385000017884F813111698017884F81411284619
:1038600017B0BDE8F08F70B506460D46002434B998
:1038700045F0010200213046FEF793FB04461CB9D7
:103880003046FFF723FE044624B900213046FDF7F9
:1038900085FB04462CB9002211463046FEF781FB19
:1038A0000446204670BD2DE9F04F85B005460E4612
:1038B00090461F460024A146A246A346002004903D
:1038C0000FB195F83091012211462846FEF769FBA9
:1038D000044624B940212846FFF7C5FF044684B9B1
:1038E000B8F1010F0DD10020012104AA5B46CDE9FA
:1038F0000062CDE902105246284600F06BF80446FB
:1039000001E0002030704CB947B14A4601212846F9
:10391000FEF747FB04460CB985F83091204605B008
:10392000BDE8F08F2DE9F04104460D46164600270C
:103930004FF00108434632462946204600F021F860
:1039400007463846BDE8F081F8B505460E461446F0
:10395000002704236A463146284600F012F807463D
:103960009DF8000000069DF8011000EB01409DF855
:10397000021000EB01209DF8031008442060384637
:10398000F8BD2DE9F04106460F4614461D464FF09E
:10399000000823462A463946304600F0E5FF08B1C4
:1039A0004FF001084046BDE8F081F8B505460E46E7
:1039B0001446002702236A4631462846FFF7E1FFF6
:1039C00007469DF801009DF8001000EB01202080C3
:1039D0003846F8BD2DE9F84F80460D4691469A4687
:1039E000DDE90BB60D9F0024002000900122FF218D
:1039F0004046FEF7D6FA0443002211464046FEF741
:103A0000D0FA04430022FF214046FEF7CAFA0443DD
:103A100075B12EB1CB2140460A9AFDF713FF04433E
:103A2000AFB16A46EE214046FDF70CFF04430EE0BD
:103A30002EB14A46CB214046FEF7B3FA044337B1D4
:103A400053468022EE214046FEF782FA04430122CB
:103A5000FF214046FEF7A5FA04430122002140461B
:103A6000FEF79FFA04430022FF214046FEF799FA31
:103A700004439DF8000000F0EF008BF800002046A2
:103A8000BDE8F88F2DE9F04F89B080460F4600263B
:103A90004FF4FA6006904FF4A5694FF4707A4FF432
:103AA000257B40F24E20059040F2B22004904FF466
:103AB0002570039040F2262002900020019044F6E9
:103AC0002060009000250098874204D22E1F3046C7
:103AD00009B0BDE8F08F09EB0A003C1A07A940467F
:103AE000FDF796FD0646002E3BD19DF81C0030B92F
:103AF0009DF81D0018B99DF81E00002831D006AAB7
:103B00000221404600F03CFE06460EB13046DFE79B
:103B10009DF81C0040B1DDE905010D18A54201D258
:103B2000641B01E06FF003060EB13046D0E79DF84C
:103B30001E0050B10699049808444500A54201D2E0
:103B4000641B0EE06FF003060BE09DF81D0040B112
:103B5000069800EB0B05A54201D2641B01E06FF053
:103B600003060EB13046B3E79DF81F0070B101AAFD
:103B70000321404600F004FE0646019903980D1803
:103B8000A54201D2641B01E06FF0030666B99DF8FF
:103B9000200048B10298241A22460421404601F030
:103BA000E3F80646C8F81470304691E72DE9F04F67
:103BB00087B0044689461646002500274FF0B40A10
:103BC0004FF0060B2C2006900122FF212046FEF725
:103BD000E8F905462DB900224F212046FEF7E1F90C
:103BE00005462DB92C224E212046FEF7DAF905466E
:103BF0002DB90022FF212046FEF7D3F905462DB945
:103C00005246B6212046FEF7CCF905464FF0000893
:103C100006E0002104F5927000F8081008F1010890
:103C2000D845F6D34EB100E07F1C0AEB070000F048
:103C3000EBFF10B906988742F6D305A804F59273F6
:103C40009A1D3146CDE900BACDE9027904902046AB
:103C500000F0D5FC054635B9012184F8151184F82A
:103C6000139184F81461284607B0BDE8F08FF7B5CA
:103C700004460D4600260127012302AA29462046B4
:103C800000F003F806463046FEBD2DE9F041064639
:103C90000F4614461D464FF0000823462A46394673
:103CA000304600F06FFF08B14FF001084046BDE814
:103CB000F081F8B506460C461546002728128DF807
:103CC0000000E8B28DF80100204604EBD0714910E5
:103CD000A4EB4101012910D101236A462146304657
:103CE000FFF7D3FF0746601CC1B201230DF10102AB
:103CF0003046FFF7CAFF074606E002236A46214620
:103D00003046FFF7C2FF07463846F8BD0FB4054BF3
:103D100010B503A9044A029800F0DAF810BC5DF867
:103D200014FB0000DD460008EC02002002E008C899
:103D3000121F08C1002AFAD170477047002001E025
:103D400001C1121F002AFBD1704700002DE9FF5F5F
:103D500082B00021DDE90430020DDDF840B00343FC
:103D600018D044F61050A2F2FF32424315141198B5
:103D700001281FD0A5EB0B00401C5FEA000A4FF0A2
:103D800000064E4FDFF83891B046504615D5CAF1BF
:103D9000000413E0119801244AA3012801D16FEA1D
:103DA0000B010298119AC0E90031C0E9024206B045
:103DB000BDE8F09FCBF10000DFE704460021404A58
:103DC000491842EB0450CDE9001012E0E00707D09B
:103DD00032463B4640464946FCF7BFFA8046894694
:103DE00032463B4610461946FCF7B7FA06460F46E0
:103DF0006410002CEAD1DDE90401DDE90023BAF109
:103E0000000F06DAFCF7A9FA42464B46FCF7A5FA82
:103E100005E0FCF714FB42464B46FCF710FB04465A
:103E20000E460022284BFCF791FB03D84FF0FF30E1
:103E3000014607E00022254B20463146FCF7E6F913
:103E4000FCF76CFB102409E0002C0ADB0A2200239B
:103E5000FCF7ABF9039B30321A55641E50EA01029D
:103E6000F2D1641C039AC4F111031444119A012A7B
:103E700003D0012208430DD10AE0084304D00020FA
:103E80004FF0110B119072E7A3EB0B056D1E0DE0C7
:103E90005B4504DD4FF0000205F1010504E003DAA3
:103EA0004FF00002A5F10105002AECD0029811990B
:103EB000C0E90231C0E9004579E700000000144084
:103EC0000000F03F300000000000F0430000E03F41
:103ED0002DE9FF4F95B09B468946064600250FE227
:103EE000252877D100242746F84A0121059400E0CF
:103EF000044316F8013F203B01FA03F01042F7D1CA
:103F000030782A2811D06FF02F033078A0F13002DA
:103F1000092A16D8059A44F0020402EB820203EB48
:103F200042021044761C0590EFE759F8042B0592E5
:103F3000002A03DA504244F40054059044F002048D
:103F4000761C30782E2816D116F8010F44F00404A0
:103F50002A280DD06FF02F023078A0F13003092B02
:103F600009D807EB870302EB4303C718761CF3E776
:103F700059F8047B761C30786C280FD006DC4C286E
:103F800017D068280DD06A2814D104E0742810D006
:103F90007A280FD10DE044F400140AE044F48014B0
:103FA00001E044F440147278824202D104F5801496
:103FB000761C761C307866280BD013DC582877D016
:103FC00009DC002875D04528F6D04628F4D04728CB
:103FD0001AD19DE118E0632835D0642879D065288E
:103FE00012D195E1702873D008DC6728F1D06928D8
:103FF0006FD06E280DD06F2806D1B5E073282CD075
:10400000752875D0782874D05A46179990476D1C3A
:1040100075E1C4F30250022809D003280DD0D9F865
:10402000001004280DD00D6009F1040967E1D9F8EA
:104030000010EA17C1E90052F6E7D9F800100D8028
:10404000F2E70D70F0E719F8041B8DF8001000205E
:104050008DF80100EA46012003E059F804AB4FF067
:10406000FF3061074FF0000102D40DE008F10101BB
:104070008846B9420FDA8045F8DB1AF808100029A3
:10408000F4D108E008F1010188468142FADB1AF810
:1040900008100029F6D105985B46A0EB08072146D9
:1040A0003846179A00F094FA284400EB080507E018
:1040B0004DE029E10DE01AF8010B5A461799904797
:1040C000B8F10108F7D25B4621463846179A13E14A
:1040D00042E00A220092C4F302524FF0000A022A80
:1040E00008D059F804CB032A4FEAEC710AD00DE04E
:1040F00029E02AE009F1070121F00702F2E802C1F4
:10410000914609E00FFA8CFC4FEAEC71042A03D1C6
:104110004FFA8CFC4FEAEC71002907DA0A460021BD
:10412000DCF1000C61EB02012D2202E0220504D536
:104130002B228DF80420012203E0E20701D0202287
:10414000F7E7904659E00A2102E010220DE0102125
:104150004FF0000A00910BE010224FF0000A44F0EB
:1041600004040827009203E008224FF0000A00929E
:10417000C4F30252022A05D059F804CB0021032AC5
:1041800008D009E009F1070121F00702F2E802C1B5
:10419000914605E01FFA8CFC042A01D10CF0FF0CBB
:1041A0004FF00008220728D5702806D0009B83F026
:1041B000100353EA0A0305D00EE040228DF80420D4
:1041C000012208E05CEA010206D030228DF80420CA
:1041D0008DF8050002229046009B83F0080353EA05
:1041E0000A030AD15CEA010201D1620705D5302237
:1041F0008DF804204FF001087F1E582804D034A009
:1042000003900EA802900DE036A0F9E753466046F1
:10421000009AFBF7CAFF84460398825C0298401E0E
:10422000029002705CEA0100F0D1029806A9081A17
:1042300000F1200A600702D524F4803400E0012751
:10424000574502DDA7EB0A0000E0002000EB0A0161
:10425000009005984144401A0590E00306D45B465F
:104260002146179A059800F0B3F90544002706E0A7
:1042700001A85A46C05D179990476D1C7F1C4745A1
:10428000F6DBE0030CD55B462146179A059800F053
:104290009FF9054404E030205A46179990476D1C59
:1042A0000099481E00900029F5DC08E00298029968
:1042B0005A460078491C0291179990476D1CBAF133
:1042C0000001AAF1010AF1DC65E100000928010002
:1042D000303132333435363738396162636465667C
:1042E000000000003031323334353637383941423E
:1042F000434445460000000000F058F90544761C90
:10430000307800287FF4ECAD19B02846BDE8F08F76
:10431000620700D4062709F1070222F0070CFCE827
:104320000223E14603F000485FEA080C02D00FF2D6
:10433000702C0DE05FEA045C02D50FF2682C07E0F8
:104340005FEAC47C02D00FF2602C01E0AFF2700C87
:104350004FF0FF3823F00043CDF850C065280CD053
:1043600006DC452809D046281DD047283DD13DE030
:10437000662818D067287ED138E00021112F01DB94
:10438000112000E0781CCDE9000106A90EA8FFF776
:10439000DDFCDDE90F010E9A03910021009207F187
:1043A000010A04914DE04FF000400097CDE9011063
:1043B00006A90EA8FFF7CAFCDDE90F0203920E9BC7
:1043C00011990022DDF80CA00093049211B9791C18
:1043D00000EB010AB7EB0A0004D4C0F1FF3007F18B
:1043E000010A0490AAEB0700019044E0012F00DAD3
:1043F00001270021112F01DD112000E03846CDE911
:10440000000106A90EA8FFF7A1FCDDE90F010E9A35
:104410000391002104910092BA4621070CD403991C
:10442000514500DA8A46BAF1010F05DD009AAAF17A
:104430000101515C302908D0B84202DA10F1040FB2
:1044400006DA0121CDE9011015E0AAF10101E9E741
:10445000002805DC049901440491AAEB000102E064
:10446000411C514500DD8A460499401A401C0190C8
:104470004FF000400290200704D40198504501DB22
:10448000CDF8048000208DF84F0002980DF14F0701
:10449000B0F1004F25D02B200E9002984FF002086B
:1044A00000280CDA404202902D200E9007E00A21ED
:1044B0000298FBF764FE3031029007F8011DB8F155
:1044C0000001A8F10108F2DC02980028EFD1791E62
:1044D0000E980870307800F0200040F0450007F892
:1044E000020D12A8C01B00F107081498007800B153
:1044F000012000EB0A01019801EBE07105984144AD
:10450000401A401E0590E00306D45B462146179AE8
:10451000059800F05DF805441498007818B15A46E3
:10452000179990476D1CE00324D55B462146179AE6
:10453000059800F04DF805441CE00498002807DBBE
:10454000DDE90301884203DD0098405C179901E032
:10455000179930205A469047049805F10105401CF0
:1045600004900198401E019004D12E205A461799BC
:1045700090476D1CBAF10001AAF1010ADDDC05E0EB
:1045800017F8010B5A46179990476D1CB8F10001B6
:10459000A8F10108F4DC5B462146179A0598ABE6C2
:1045A0002D0000002B000000200000002DE9F0414C
:1045B000044600251E461746880404D405E0394603
:1045C0002020B0476D1C641EF9D52846BDE8F08157
:1045D0002DE9F041044600251E469046C80301D54A
:1045E000302700E02027880404D505E041463846FE
:1045F000B0476D1C641EF9D52846BDE8F0812DE951
:10460000FF4F85B0884691461D46DDF850B0DDF875
:1046100048A00026CDF80CB05F46002004901FE0B3
:1046200003AB3A465146484600F06AF80398401CEE
:1046300010B96FF0310617E0039A1399881800F04B
:10464000E3FA404502D06FF031060DE0039F3A4691
:104650005146284600F029F87F1C0498401C04901D
:10466000159904988842DBD300BF1698076026B9D5
:104670002946059800F06CFB064696B901A90598F5
:1046800000F072F80646002408E0285D01A9095DE3
:10469000884202D06FF0310602E0641C5445F4D326
:1046A00000BF304609B0BDE8F08FF0B503460C46B8
:1046B00000200825B2FBF5F1B2FBF5F705FB172644
:1046C000A14202D36FF0310007E05F5C4FF0010CB4
:1046D0000CFA06FC47EA0C075F54F0BD70B50446BF
:1046E0000D46E1B20548FCF702FC00BF80210348FB
:1046F000FCF730FB0028F9D0204670BD003801409F
:104700002DE9F04706460F4608214FF000094FF00B
:10471000FF3AC3F800A0B2FBF1FCB2FBF1FA01FBD7
:104720001A28604619E00024355C604502D145FA3C
:1047300008F544460DE005F0010ABAF1000F06D075
:104740004FF0010900FB014AC3F800A003E06D101F
:10475000641C8C42EFD300BF401CB84202D2B9F1B6
:10476000000FE0D0BDE8F08770B505460C46062383
:104770002246B0212846FDF7A7F80646304670BD10
:104780002DE9F04F87B082460D46174600240020E1
:1047900005908346049081461DB1012D01D0022D64
:1047A0001AD106AA00215046FCF796FF04462CB900
:1047B00005AA46215046FDF745F804469DF8140029
:1047C000FDF7C2FE1FFA80F89DF8182041465046BA
:1047D000FDF776FE83465EE0032D21D106AA002177
:1047E0005046FCF779FF0446002C54D106AA00215C
:1047F0005046FCF771FF04462CB904AA51215046DB
:10480000FDF74CF80446BDF81000FDF79DFE86B29A
:104810009DF8182031465046FDF752FE83463AE097
:10482000042D38D101A95046FCF7F2FE00269DF870
:10483000070088B106AA00215046FCF74DFF044648
:1048400054B904AA51215046FDF728F80446BDF892
:104850001000FDF779FE86B22CB906AA0121504658
:10486000FCF73AFF04465CB903AA71215046FDF7F4
:1048700015F80446BDF80C00FDF766FE1FFA80F936
:10488000A9EB06001FFA80F99DF81820494650460A
:10489000FDF716FE8346C7F800B0204607B0BDE816
:1048A000F08F000010B540210B48FBF7FDFF00F032
:1048B00015F880210848FBF7F7FF00F00FF84021BA
:1048C0000548FBF7F3FF00F009F840210248FBF729
:1048D000EBFF00F003F810BD000C01401E2000BFEC
:1048E000011EA0F10100FBD17047000008B50121B5
:1048F0000820FCF739F84020ADF8000002208DF8C0
:10490000020010208DF8030069460848FBF738FFC5
:104910008020ADF8000002208DF8020014208DF8F0
:10492000030069460148FBF72BFF08BD000C01405E
:1049300010B540210B48FBF7B7FFFFF7CFFF8021F1
:104940000848FBF7B3FFFFF7C9FF40210548FBF715
:10495000ADFFFFF7C3FF40210248FBF7A5FFFFF7BC
:10496000BDFF10BD000C01402DE9F04104460D468D
:1049700016461F463B4632462946204600F006F8BA
:1049800010B10120BDE8F0810020FBE72DE9F041E6
:1049900004460F4615461E4600F086F810B1012069
:1049A000BDE8F081204600F053F800F0C5F818B1DA
:1049B00000F0A4F80120F3E7384600F049F800F0D1
:1049C000BBF8FFF78BFF00F06FF844F0010000F038
:1049D0003FF800F0B1F80BE000F010F83070012D56
:1049E00002D1FFF7A5FF01E0FFF75CFF761C6D1E0B
:1049F000002DF1D100F082F80020D1E770B5082534
:104A0000002480211148FBF751FF14E06006040EDA
:104A100040210E48FBF748FFFFF760FF40210B489D
:104A2000FBF744FFFFF75AFF80210848FBF733FFED
:104A300008B144F00104281EA5F10101CDB2E5D171
:104A400040210248FBF730FF204670BD000C0140BA
:104A500070B5044608251BE040211248FBF724FFEF
:104A6000FFF73CFF04F0800020B180210D48FBF7E8
:104A70001DFF03E080210B48FBF716FF6006040EC4
:104A8000FFF72CFF40210748FBF710FFFFF726FF39
:104A9000281EA5F10101CDB2DED140210148FBF76E
:104AA00003FF70BD000C014010B580211248FBF7D8
:104AB000FDFE40211048FBF7F9FEFFF70FFF8021B4
:104AC0000D48FBF7E8FE08B9012010BD80210A4817
:104AD000FBF7EAFEFFF702FF80210748FBF7DBFE4A
:104AE00008B10120F1E740210348FBF7DDFEFFF7A5
:104AF000F5FE0020E9E70000000C014010B5402160
:104B00000C48FBF7D1FEFFF7E9FE80210948FBF7CF
:104B1000CBFEFFF7E3FE40210648FBF7C7FEFFF799
:104B2000DDFE80210348FBF7C1FE0220FCF736F8CA
:104B300010BD0000000C014010B540211048FBF7EB
:104B4000B3FEFFF7CBFE80210D48FBF7AFFEFFF76A
:104B5000C5FE40210A48FBF7A9FEFFF7BFFE8021F2
:104B60000748FBF798FE28B140210548FBF79CFE5B
:104B7000012010BD40210248FBF796FE0020F8E717
:104B8000000C01402DE9F04104460D4616461F4633
:104B90003B4632462946204600F006F810B1012077
:104BA000BDE8F0810020FBE72DE9F04105460E4607
:104BB00017469846FFF778FF10B10120BDE8F08155
:104BC0002846FFF745FFFFF7B7FF18B1FFF796FF3D
:104BD0000120F3E73046FFF73BFFFFF7ADFF00246E
:104BE0000BE018F80400FFF733FFFFF7A5FF18B13B
:104BF000FFF784FF0120E1E7641CBC42F1D3FFF71B
:104C00007DFF0020DAE70000014601208A09034BFE
:104C100053F8223003B9002070470000D80200206A
:104C2000FBF77EFDFBF7E2FFFCF74CF800F03AF9EA
:104C300006E00448007818B90349044800F0DCFA9B
:104C4000F7E70000E8020020B4040020F002002092
:104C5000F0B587B005460E460024002795F8307160
:104C60002CB9C02201212846FDF79BF9044624B93E
:104C700069462846FCF7BDFD04462CB90122FF21F8
:104C80002846FDF78EF904462CB93246B62128464F
:104C9000FCF704FE04462CB90022FF212846FDF74C
:104CA00080F9044644B93A4601212846FDF779F9CE
:104CB00004460CB985F83071204607B0F0BD0000FD
:104CC00010B588B0044669462046FCF7D4FB6A4616
:104CD000214602A0FFF71AF808B010BD4150492044
:104CE0005374617475733A202569203A2025730A3C
:104CF0000000000030B589B00446257E01A9284691
:104D0000FCF7C4FB09B030BD30B5044600200025D7
:104D10001D70052917D2DFE801F003070B0F130000
:104D2000C2F300151D7011E0C2F3C0051D700DE047
:104D3000C2F380051D7009E0C2F380151D7005E007
:104D4000D5091D7002E06FF0030000BF00BF30BD49
:104D500070B505460C4606232246B0212846FDF7CD
:104D60004CF90646304670BD2DE9F04F85B0064639
:104D70000D46174600241DB1012D01D0022D23D16F
:104D800004AA00213046FCF7A7FC04469CB99DF814
:104D9000102039463046FDF779FB1FFA80FABAF544
:104DA000807F02DD4FF0FF0803E0AAF1010000F070
:104DB000FF08A6F8D880002C6FD142464621304625
:104DC000FDF7EFF8044668E0032D23D1ACB904AA3F
:104DD00000213046FCF780FC04469DF8102039463F
:104DE0003046FDF753FB1FFA80F94846FDF7E0FB1C
:104DF0000390BDF80C10D820815334B9BDF80C20B5
:104E000051213046FDF7E3F80446002C45D1E4205B
:104E1000875142E0042D3ED169463046FCF7F8FB4D
:104E20004FF000099DF8030090B104AA002130461C
:104E3000FCF752FC04465CB903AA51213046FCF74A
:104E40002DFD0446BDF80C00FDF77EFB1FFA80F92E
:104E50002CB904AA01213046FCF73EFC0446E4B913
:104E60009DF8102039463046FDF710FB1FFA80FBF5
:104E70000BEB09001FFA80FB5846FDF799FB0290E7
:104E80002CB971213046029AFDF7A1F8044624B9E5
:104E9000DC20875101E06FF00304204605B0BDE837
:104EA000F08F000070B50024324D522085F85C016F
:104EB000012085F85D014FF4C870A5F85E01FEF78A
:104EC00075FA2846FCF794F8044624B12046FFF70B
:104ED000F7FE204670BD28492846FCF759F90446DC
:104EE00024B12046FFF7ECFE2046F3E723A0FEF7AF
:104EF0000DFF214927A0FEF709FF1F4920312AA0F5
:104F0000FEF704FF1C4940312CA0FEF7FFFE1A48B3
:104F100090F861102DA0FEF7F9FE174890F8621086
:104F200031A0FEF7F3FE144890F86100012813D079
:104F3000114890F8620001280ED00F4890F86220C6
:104F400090F861102FA0FEF7E1FE6FF004042046F8
:104F5000FFF7B6FE2046BDE7284600F06BF8044692
:104F60003348047024B12046FFF7AAFE2046B1E77B
:104F70002046AFE7F002002050040020564C3533A5
:104F80004C30585F476574446576696365496E6661
:104F90006F3A0A00446576696365204E616D65204D
:104FA0003A2025730A000000446576696365205441
:104FB000797065203A2025730A00000044657669FF
:104FC0006365204944203A2025730A0050726F64BB
:104FD0007563745265766973696F6E4D616A6F723D
:104FE000203A2025640A000050726F647563745281
:104FF00065766973696F6E4D696E6F72203A202510
:10500000640A00004572726F72206578706563747F
:1050100065642063757420312E31206275742066BA
:105020006F756E64206375742025642E25640A00F4
:10503000E80200207FB5054600242846FCF7B8FEAC
:10504000044644B134A0FEF761FE2046FFF738FE67
:10505000204604B070BD6A4601A92846FCF78CFBC7
:1050600004463CB133A0FEF751FE2046FFF728FE70
:105070002046EEE702AA03A92846FCF78DFB04466A
:105080006CB136A0FEF742FE9DF808203EA00399C1
:10509000FEF73CFE2046FFF713FE2046D9E700212D
:1050A0002846FCF72CFC04463CB142A0FEF72EFE3D
:1050B0002046FFF705FE2046CBE72CB90122002150
:1050C0002846FCF7E8FC04462CB901221146284684
:1050D000FCF7E1FC044634B94FF480420121284634
:1050E000FCF73AFD044634B94FF4901200212846EB
:1050F000FCF732FD044624B936492846FCF767FD23
:1051000004463CB134A0FEF701FE2046FFF7D8FD6F
:1051100020469EE720469CE743616C6C206F66202A
:10512000564C35334C30585F537461746963496E23
:1051300069740A0043616C6C206F6620564C3533ED
:105140004C30585F506572666F726D526566436190
:105150006C6962726174696F6E0A000043616C6C05
:10516000206F6620564C35334C30585F5065726660
:105170006F726D526566537061644D616E616765F3
:105180006D656E740A000000726566537061644359
:105190006F756E74203D2025642C20697341706505
:1051A00072747572655370616473203D2025640AC2
:1051B0000000000043616C6C206F6620564C353354
:1051C0004C30585F5365744465766963654D6F6410
:1051D000650A0000400D03005369676D6120616E30
:1051E00064205369676E616C20636865636B20653A
:1051F00072726F720A00000070B506460C460025F8
:105200000E48007818B10D4890F9000070BD214695
:105210003046FCF7EEFA054625B109A0FEF776FD0B
:105220002846F3E72046FFF765FD2089A0F1190124
:1052300011A0FEF76BFD2846E8E70000E802002019
:105240006572726F723A43616C6C206F6620564CC7
:1052500035334C30585F506572666F726D53696EAE
:10526000676C6552616E67696E674D6561737572D3
:10527000656D656E740A00004D65617375726564D5
:105280002064697374616E63653A2025690A0A00B7
:10529000B052000800000020F0020000BC06000828
:1052A0004C550008F0020020E00500003C3D0008DD
:1052B000500600A24A040001600901020304060727
:1052C00008090C6110300502040608202004FF01C3
:1052D0000106301300010900011000011100012432
:1052E000010125FF01751B20094E2C0148000130EA
:1052F000202120363009015400013104013203011C
:10530000408301462501600001270001500601513C
:1053100000015296015608015730016100016200F8
:105320000164000165000166A045300B223201478F
:10533000140149FF014A6920097A0A017B000178BA
:105340002160201B23340142000144FF0145260156
:105350004605014040010E0601201A0143402A2063
:1053600006340301354487117520094B09014C05AA
:10537000014D0442301D4400014520014708014809
:10538000280167000170040171010172FE017600BD
:105390000177B7230D0169200680010101F8C612CB
:1053A0008EE4411241F3311B51F9106701014F02A4
:1053B00001FF0E01000301018401020A0103030140
:1053C00004080105C801060301078D010808010949
:1053D000C6010A01010B02010C00010DD5010E18D6
:1053E000010F120110010111820112000113D501F8
:1053F000141801151301160301178601180A011963
:1054000009011A08011BC2011C03011D8F011E0A9C
:10541000011FD51431010121020122000123D50110
:1054200024180125220126010127820128000129D3
:10543000D5012A18012B0B012C28012D78012E28CB
:10544000012F9101306B34380B01320001330B0115
:1054500034000135A10136000137A00138000139BF
:1054600004013A28013B30013C0C013D04013E0F90
:10547000013F7901402801411E01422F014387204D
:1054800024080B01460001470BBF2749A77A2406D1
:105490004BA6014C0041124EF315B6242F000151CA
:1054A0008001520901530801540101550001560FB2
:1054B000015779015809015905015A00015B600142
:1054C0005C05015DD1015E0C015F3CEC142C61D0E8
:1054D00001620B01630301642801651001662A0162
:1054E000673901680B016902016A28016B10016CC0
:1054F0002A016D61016E0C016F9534110F017179F4
:1055000001720001730B01740001750B9E140DA153
:105510000178000179A0017A00017BCB441F0401CE
:10552000791D017B2701960E0197FE0198030199D1
:10553000EF019A02019B440173070170A425B94948
:0C554000CC120A0452050C610821010085
:04000005080000ED02
:00000001FF
