:020000040800F2
:10000000880C002061620008E9020008EB02000889
:10001000EF020008F3020008F702000800000000E9
:10002000000000000000000000000000FB020008CB
:10003000FD02000800000000FF02000801030008A4
:100040007B6200087B6200087B6200087B6200081C
:100050007B6200087B6200087B6200087B6200080C
:100060007B6200087B6200083B5700087B62000847
:100070007B6200087B6200087B6200087B620008EC
:100080007B6200087B6200087B6200087B620008DC
:100090007B6200087B6200087B6200087B620008CC
:1000A0007B6200087B6200087B6200087B620008BC
:1000B0007B6200087B6200087B6200087B620008AC
:1000C0007B6200087B6200087B6200087B6200089C
:1000D0007B620008D56100087B6200087B62000833
:1000E0007B6200087B6200087B6200087B6200087C
:1000F0007B6200087B6200087B6200087B6200086C
:100100007B6200087B6200087B6200087B6200085B
:100110007B6200087B6200087B6200087B6200084B
:100120007B6200087B6200087B6200087B6200083B
:1001300000F002F800F06CF80AA090E8000C82448D
:100140008344AAF10107DA4501D100F061F8AFF26A
:10015000090EBAE80F0013F0010F18BFFB1A43F0A5
:1001600001031847187A0000387A000010F8013BA4
:100170000A4413F0030408BF10F8014B1D1108BF17
:1001800010F8015B641E05D010F8016B641E01F8C5
:10019000016BF9D1002D15D010F8014B03F00C03C1
:1001A0000C2BA1EB04040ABF10F8013BA4EB831451
:1001B000A4EB032405F1010314F8016B5B1E01F8A5
:1001C000016BF9D5914238BF10F8013BD1D370478C
:1001D0000023002400250026103A28BF78C1FBD850
:1001E000520728BF30C148BF0B607047692906F02D
:1001F0004987642906F04687782906F07F877329A6
:1002000007F05B81002070471FB51FBD10B510BD02
:1002100007F06EF91146FFF7F7FF00F009F807F055
:100220008CF903B4FFF7F2FF03BC05F079FF00007F
:10023000022405F00BFF00F055F900F02AFB2046E0
:1002400004F05EFF41220121084600F02FFA12A2BD
:100250000121084600F061FA14A20121032000F0F8
:100260005CFA18E004F0ABFF0546294612A006F040
:1002700099FE17A20121022000F04FFA4FF4FA7004
:1002800005F021FF15A20121022000F046FA4FF4EB
:10029000FA7005F018FFE5E748656C6C6F2C345078
:1002A000696E204F4C45442100000000323032324C
:1002B0002E352E3100000000BCA4B9E2B2E2BEE04F
:1002C000643A2025346920286D6D290D0A0000004C
:1002D0003132333435362D2D000000002D3E616261
:1002E0006364656600000000704700BFFEE700BF62
:1002F000FEE700BFFEE700BFFEE7704770477047AC
:10030000704700000CB50020019000906C48006818
:1003100040F480306A49086000BF6948006800F412
:10032000003000900198401C0190009818B9019885
:10033000B0F5A06FF1D16248006800F4003010B150
:100340000120009001E0002000900098012843D196
:100350005C48006840F010005A4908600846006890
:1003600020F0030008600846006840F002000860C2
:10037000534840685249486008464068486008460B
:10038000406840F4806048600846406820F47C1073
:1003900048600846406840F4E81048600846006835
:1003A00040F08070086000BF4548006800F00070B1
:1003B0000028F9D04248406820F0030040494860D6
:1003C0000846406840F00200486000BF3C48406872
:1003D00000F00C000828F9D10CBD10B5FFF792FF12
:1003E00010BD10B53648006840F00100344908607F
:1003F000084640683449084031494860084600686A
:10040000324908402E4908600846006820F48020E0
:1004100008600846406820F4FE0048604FF41F0062
:100420008860FFF7DAFF4FF000602949086010BDCF
:1004300010B5002100200022214B5B6803F00C0165
:1004400021B1042906D0082928D107E0214B224CEC
:10045000236027E01F4B204C236023E0184B5B6890
:1004600003F47010164B5B6803F48032022303EB35
:10047000904022B9194B4343174C23600DE0104BB9
:100480005B6803F4003323B1144B4343124C2360E5
:1004900003E0104B4343104C236003E00D4B0E4C24
:1004A000236000BF00BF064B5B68C3F303130C4C13
:1004B000E15C094B1B68CB40074C236010BD00007A
:1004C00000100240002002400000FFF8FFFFF6FE8F
:1004D00008ED00E000127A000000002000093D0055
:1004E0000400002008B50121482006F063FA20200E
:1004F000ADF8000010208DF8030003208DF80200F5
:100500006946094805F09AFF2021074806F043F89C
:100510002020ADF800006946044805F08FFF202137
:10052000024806F038F808BD000C014000180140F0
:1005300008B50121082006F03DFA14208DF80300CB
:1005400003208DF802004FF48070ADF8000069467A
:10055000FB4805F073FF4FF40070ADF800006946EA
:10056000F74805F06BFF01221102F54806F017F875
:1005700001225102F24806F012F808BD10B501221E
:100580005102EF4806F00BF801221102EC4806F088
:1005900006F800224FF40071E94806F000F8002246
:1005A0004FF48071E64805F0FAFF10BD10B5002247
:1005B0004FF40071E24805F0F2FF01221102E04819
:1005C00005F0EDFF01225102DD4805F0E8FF10BD06
:1005D00070B50546002415E08020204100EA0502A0
:1005E0004FF40071D64805F0DAFF01221102D44819
:1005F00005F0D5FF00224FF48071D14805F0CFFF00
:10060000601CC4B2082CE7DB01221102CC4805F0C3
:10061000C6FF00224FF48071C94805F0C0FF70BDCD
:1006200010B50446FFF7AAFF7820FFF7D1FF00209E
:10063000FFF7CEFF2046FFF7CBFFFFF7B7FF10BD58
:1006400010B50446FFF79AFF7820FFF7C1FF40205E
:10065000FFF7BEFF2046FFF7BBFFFFF7A7FF10BD68
:1006600070B505460C4645F0B000FFF7D9FF1021E4
:1006700041EA1410FFF7D4FF04F00F00FFF7D0FF9A
:1006800070BD70B500240EE000212046FFF7E8FFA2
:10069000002504E00020FFF7D3FF681CC5B2802DC1
:1006A000F8DB601CC4B2082CEEDB70BD2DE9F04114
:1006B00005460E461746721ED206110E6A1E5206D7
:1006C000100EFFF7CDFF002409E0A7F120019D4A9D
:1006D00002EB0111085DFFF7B3FF601CC4B2082CE8
:1006E000F3DB721ED206110E6A1E012303EB4202D7
:1006F000D0B2FFF7B5FF00240BE0A7F12001914A2B
:1007000002EB011204F10801505CFFF799FF601C35
:10071000C4B2082CF1DBBDE8F0812DE9F0410746B9
:100720000E461546002407E02A5D3019C1B238464E
:10073000FFF7BCFF601CC4B2285D0028F4D1BDE8FF
:10074000F08110B50246012000E050430B1EA1F1DC
:100750000101FAD110BD2DE9F04780460E4617463B
:100760001D46002415E0281B411E0A20FFF7E9FF63
:10077000B7FBF0F00A21B0FBF1F201FB120000F12F
:1007800030093019C1B24A464046FFF78FFF601C5E
:10079000C4B2AC42E7DBBDE8F0872DE9F047814603
:1007A000884615461E46002D06DB2B22414648464C
:1007B000FFF77CFF2F4605E02D2241464846FFF714
:1007C00075FF6F42002417E0301B411E0A20FFF71F
:1007D000B8FFB7FBF0F00A21B0FBF1F201FB120009
:1007E00000F1300A08EB0400401CC1B252464846F2
:1007F000FFF75CFF601CC4B2B442E5DBBDE8F087E4
:100800002DE9F04781460E4690461F4600241DE024
:10081000381B411E1020FFF794FFB8FBF0F000F0EA
:100820000F050A2D08DA05F13000C2B23019C1B245
:100830004846FFF73BFF07E005F13700C2B2301929
:10084000C1B24846FFF732FF601CC4B2BC42DFDBD6
:10085000BDE8F0872DE9F04780460E4617461D4655
:10086000002412E0281B411E0220FFF76AFFB7FB9D
:10087000F0F000F0010000F130093019C1B24A4631
:100880004046FFF713FF601CC4B2AC42EADBBDE890
:10089000F08770B5002406E0002500E06D1CB5F57A
:1008A0007A7FFBD3641CB4F57A7FF5D3FFF740FE63
:1008B000AE20FFF7B5FED520FFF7B2FE8020FFF790
:1008C000AFFEA820FFF7ACFE3F20FFF7A9FED32024
:1008D000FFF7A6FE0020FFF7A3FE4020FFF7A0FED3
:1008E000A120FFF79DFEC820FFF79AFEDA20FFF750
:1008F00097FE1220FFF794FE8120FFF791FECF2094
:10090000FFF78EFED920FFF78BFEF120FFF788FE60
:10091000DB20FFF785FE3020FFF782FEA420FFF7E3
:100920007FFEA620FFF77CFE8D20FFF779FE1420C6
:10093000FFF776FEAF20FFF773FEFFF7A2FE70BD54
:10094000000C0140627500080146002001220A7176
:1009500000224A7102228A7141F2D7220A6070474E
:100960000146002001220A7102224A7107228A717F
:100970004FF4B4620A607047F8B506460C46154657
:1009800000276A46C221304605F010FB07460120C9
:1009900020709DF80000000928703846F8BD70B539
:1009A00004460D4600262946204603F046FE06462C
:1009B000304670BDF8B505460C4600266A4614213F
:1009C000284605F0F3FA06469DF80000C0F3C30080
:1009D00020703046F8BD70B504460D460026294605
:1009E000204603F076FE0646304670BD70B50446DC
:1009F0000D4600262946204603F0CEFE0646304628
:100A000070BD70B504460D4600262946204603F009
:100A1000F4FE0646304670BD70B504460D4600260D
:100A20002946204603F07EFF0646304670BD02464A
:100A3000002092F832310B7070472DE9F0410446E6
:100A40000D461646002732462946204603F096F802
:100A500007463846BDE8F08170B504460D460026CD
:100A60002946204603F0ADF80646304670BD2DE914
:100A7000F84307460D4690460026002000900024CB
:100A80006A460121384605F091FA06469DF8004075
:100A9000002E36D1B8F1010F19D1052D13D2DFE8A0
:100AA00005F00306090C0F0044F010040EE044F0BA
:100AB00028040BE044F0040408E044F0400405E09E
:100AC00044F0800402E06FF0030600BF19E0052D3A
:100AD00013D2DFE805F00306090C0F0004F0EF0461
:100AE0000EE004F0D7040BE004F0FB0408E004F08F
:100AF000BF0405E004F07F0402E06FF0030600BFCE
:100B000000BF9DF80000844210D02EB9224601217A
:100B1000384605F0E0F906460EB987F830412EB99F
:100B2000D7F8149049463846FFF796FF3046BDE89F
:100B3000F88370B506460C4600252246092130464A
:100B400005F034FA05461DB9207800F00100207048
:100B5000284670BD70B504460D460026294620463D
:100B600003F0C2F80646304670BDF8B506460C469E
:100B700000256A460121304605F018FA05466DB990
:100B80009DF8000086F830019DF8000000F080001C
:100B900010B10120207001E00020207015B92178EB
:100BA00086F84C102846F8BD30B5034600200629CB
:100BB00003DB001F0025157003E003F128056C5CC2
:100BC000147030BD2DE9F84305460E4617464FF028
:100BD0000008C146062E2FD2DFE806F00307161ADA
:100BE0001E1F6C6B4FF0000929E06A46442128461D
:100BF00005F0F2F98046B8F1000F02D1BDF800000F
:100C000044024FF001091AE0EC6B4FF0000916E0C6
:100C10002C6C4FF0000912E000BF6A4664212846A0
:100C200005F0DAF98046B8F1000F02D1BDF80000F6
:100C300044024FF0000902E06FF0030800BF00BF5C
:100C4000B8F1000F16D1B9F1010F12D144B905F175
:100C5000340050F826403C6000210C38815509E0F2
:100C60003C6005F1340040F8264001210C388155E4
:100C700000E03C604046BDE8F88370B504460D4690
:100C800000262946204601F068FC0646304670BD25
:100C9000F8B504460E4600276A462021204605F096
:100CA0009BF9074677B9BDF8000020B9256A356081
:100CB0000021217706E0BDF80000C50035602562FF
:100CC000012121773846F8BD7CB506460C46002543
:100CD00001AAF821304605F07FF905462DB96A468C
:100CE0000421304605F08EF9054655B9BDF80400DB
:100CF00028B1BDF804100098B0FBF1F02060216825
:100D0000B16128467CBD02460020137C0B70704701
:100D10002DE9F04107460D46002429463846FFF7E5
:100D2000F2FF04462CB905F108013846FFF7CCFF65
:100D300004460CB9002028732CB905F1100138467F
:100D4000FFF7A6FF04462CB905F114013846FFF75A
:100D500094FF0446E4B9002617E04CB905F12400DD
:100D600000EB8602B1B23846FFF72CFF044300E0E7
:100D70000DE044B905F118008219B1B23846FFF709
:100D800013FF044300E002E0761C062EE5DB00BF03
:100D90002CB905F13C013846FFF7E7FE044624B9BB
:100DA000291D3846FFF7D6FE04462046BDE8F081EF
:100DB000F8B506460F460024002500BF01220B218E
:100DC000304605F088F8044600220B21304605F035
:100DD00082F804436A461321304605F0E7F80443DD
:100DE000681CC5B29DF8000000F0070018B1032D83
:100DF00001DA002CE2D0032D01DB6FF00B0420465A
:100E0000F8BD2DE9F0478046894617461E46DDF8B5
:100E100020A00024B9F1000F02D06FF00904A0E077
:100E2000142F0CD1BAF1000F01D1102500E00125DB
:100E30002A468421404605F04EF8044691E0152FDD
:100E40005AD10122FF21404605F045F80443002213
:100E50001146404605F03FF804430022FF2140467A
:100E600005F039F8044301228021404605F033F8AB
:100E7000044302228521404605F02DF80443042254
:100E8000FF21404605F027F804430022CD214046CB
:100E900005F021F804431122CC21404605F01BF84F
:100EA00004430722FF21404605F015F804430022C1
:100EB000BE21404605F00FF804430622FF214046BC
:100EC00005F009F804430922CC21404605F003F857
:100ED00004430022FF21404604F0FDFF04430122A9
:100EE000FF21404604F0F7FF04430022114640462C
:100EF00004F0F1FF044334E0A4B9052E0ED2DFE87C
:100F000006F0030507090B0000250AE0012508E0AB
:100F1000022506E0032504E0042502E06FF00A0440
:100F200000BF00BF2CB92A460A21404604F0D3FF77
:100F3000044664B9BAF1000F01D1002500E0102584
:100F40002B46EF228421404605F007F8044614B9E9
:100F5000DA2000F8086024B900214046FFF728FF96
:100F600004462046BDE8F0872DE9F04397B00546DA
:100F70000024402107A806F0ECF900200690059017
:100F8000814600270490039000260121284602F0A4
:100F90004DF8044695F8137195F81461012E05DC9F
:100FA00001D1202F02D846B90C2F06D904AA03A9D3
:100FB000284601F091FD044605E0324639462846B0
:100FC00001F0D3FE0446DFF8D0874CB995F8509174
:100FD000B9F1000F02D1D5F84C8101E0DFF8B887F4
:100FE00024B94146284602F0F6FE044644B90020E2
:100FF00004230246014600902846FFF702FF0446FC
:101000008CB90122FF21284604F065FF044606AA98
:101010008421284604F0E0FF04430022FF212846F3
:1010200004F059FF044324B9BDF818000001C5F8C5
:10103000D40024B907A92846FFF76AFE04464CB934
:1010400005A92846FFF775FD04461CB99DF8140054
:1010500085F831012CB9402207A905F1100006F0EE
:1010600024F954B905AA0121284604F09FFF04463B
:101070001CB99DF8140085F830012CB900221146E6
:101080002846FFF7F4FC04462CB90022022128462A
:10109000FFF7EDFC044614B9032085F832012CB9A2
:1010A00002AA00212846FFF7C8FC04461CB99DF897
:1010B0000810E82041552CB902AA01212846FFF763
:1010C000BCFC04461CB99DF80810E02041552CB921
:1010D00001AA0321284602F0A8FA044614B9E42024
:1010E000019941512CB901AA0421284602F09DFA28
:1010F000044614B9DC2001994151204617B0BDE8DF
:10110000F08370B504460D46002625B1022D02D0AD
:101110006FF007061DE06DB900228021204604F023
:10112000DAFE0646AEB9022084F83201002084F8C7
:1011300033010EE000228021204604F0CCFE06465A
:101140001EB92046FFF710FF064616B9022084F8A4
:101150003301304670BDF8B504460E4600256A4698
:101160008021204604F022FF054655B99DF8000075
:10117000012803D1022084F8330102E0002084F822
:1011800033012846F8BD70B504460D4600262946B1
:10119000204601F0BDF90646304670BD70B50546E3
:1011A0000C460026002C02DBB4F57A7F02DD6FF0DE
:1011B00003060AE0A5F85241B4F57A7F05D0002273
:1011C0002021284604F09DFE0646304670BD0246AA
:1011D0000020B2F852310B80704702466FF0620077
:1011E000704702466FF06200704770B588B00446E1
:1011F0000D4600261C2204F1500101A806F055F806
:101200002A4601A9204602F078FE0646304608B07C
:1012100070BD2DE9F04105460C460026274604EB3B
:10122000D770C0F347028A21284604F054FE0646D0
:101230003046BDE8F0812DE9F04105460E461446E2
:10124000002705F1280010F80680B8F1000F03D13F
:101250000C3040F8264026E0062E1BD2DFE806F0D0
:1012600003050D0F11126C6317E0C4F34F224421E4
:10127000284604F046FE07460FE0EC630DE02C64C0
:101280000BE000BFC4F34F226421284604F039FE6E
:10129000074602E06FF0030700BF00BF1FB905F16A
:1012A000340040F826403846BDE8F0812DE9F05F73
:1012B00004460D4616464FF00009CB460027BA46B5
:1012C000062D02DB6FF0030941E02EB94FF0000B51
:1012D00000274FF0010A06E004F1340050F825B071
:1012E0004FF0000A0127062D2DD2DFE805F0030696
:1012F0000E1114202820075528E0CBF34F2244215B
:10130000204604F0FEFD814620E084F82A701DE0AE
:1013100084F82B701AE04FEA4A604FEA106843469F
:10132000FE226021204604F018FE81460EE04FEABE
:101330000A704FEA10684346EF226021204604F00D
:101340000CFE814602E06FF0030900BF00BFB9F157
:10135000000F09D126B9002104F12800415503E00E
:10136000012104F1280041554846BDE8F09F70B5C1
:1013700092B0054600240123FE228921284604F06C
:10138000ECFD04462CB900228821284604F0A3FD78
:1013900004460021F02041554FF47A70A5F852011F
:1013A0004FF4C870A5F85401FC48C5F85801FC4832
:1013B000C5F8D400296202A92846FFF7A9FC044613
:1013C00054B900208DF808008DF80900402202A9C8
:1013D00005F1100005F069FF642005F59A75288075
:1013E0004FF4617068804FF4FA70A8804FF4206069
:1013F000288101202877A5F59A75012280212846A9
:1014000004F069FD04430122FF21284604F063FD36
:10141000044300221146284604F05DFD044301AA5E
:101420009121284604F0C2FD04439DF8040085F88C
:101430003A0101220021284604F04DFD0443002218
:10144000FF21284604F047FD04430022802128465E
:1014500004F041FD0443002609E034B9B1B2012291
:101460002846FFF723FF044300E002E0761C062E27
:10147000F3DB00BF2CB9002202212846FFF716FF3C
:1014800004462CB9002203212846FFF70FFF04462B
:101490002CB9002204212846FFF708FF04462CB986
:1014A000002205212846FFF701FF044634B94FF416
:1014B000901200212846FFF7BEFE044634B94FF4CF
:1014C000804201212846FFF7B6FE044634B94FF4A6
:1014D0000C1202212846FFF7AEFE04462CB900226A
:1014E00003212846FFF7A7FE04465CB9FF2085F8D4
:1014F0003001FF220121284604F0EDFC04460120C2
:1015000085F8320114B9002185F81511204612B072
:1015100070BD10B503460020012A03D1012483F8D1
:10152000504109E00C782CB1C3F84C11002483F829
:10153000504101E06FF0030010BD10B503460020DC
:10154000D3F84C410C6093F85041147010BD014623
:101550006FF06200704738B5054600240022BF21B5
:10156000284604F0B8FC044654B900BF6A46C021BE
:10157000284604F01BFD04469DF800000028F5D124
:10158000284604F055FD0122BF21284604F0A3FCA3
:10159000044654B900BF6A46C021284604F006FD3F
:1015A00004469DF800000028F5D0284604F040FDD0
:1015B00014B9002085F83201204638BDF8B504463C
:1015C0000E4600276A460121204604F0EFFC07463C
:1015D00036B99DF8000000F07F000090002505E07E
:1015E0009DF8000040F08000009001259DF800204B
:1015F0000121204604F06FFC07462FB99DF800003A
:1016000084F8300184F84C503846F8BD2DE9F04795
:1016100004460D46002794F81C80B4F85291B8F1A6
:10162000000F01D125620EE0B9F57A7F02D1C5F332
:10163000CF0600E0002632462021204604F061FC5F
:10164000074607B925623846BDE8F087F8B5074672
:101650000C4600256A46F821384604F0BDFC0546D4
:1016600075B9BDF8000020B1BDF8000004FB00F61C
:1016700000E0264632460421384604F058FC054670
:1016800005B9BC612846F8BD0246002003290BD0ED
:1016900003DC39B101290BD105E0142905D0152946
:1016A00006D103E000BF00BF00BF00BF117402E01D
:1016B0006FF0070000BF00BF70472DE9F0410746FB
:1016C0000D46002429783846FFF7DEFF044624B98A
:1016D0003846A968FFF7BAFF044624B93846296995
:1016E000FFF794FF044624B938466969FFF74BFDBC
:1016F0000446002617E044B905F11800825DB1B236
:101700003846FFF7D3FD044300E00EE04CB905F185
:10171000240050F82620B1B23846FFF78CFD044370
:1017200000E002E0761C062EE5DB00BF2CB995F840
:101730003C103846FFF742FF044624B93846696832
:10174000FFF78AF904462046BDE8F08170B50546EA
:101750000C46002622460921284604F0BCFB06461A
:101760000EB985F83141304670BD02466FF0620017
:10177000704702466FF0620070472DE9F041044661
:101780000D461646002732462946204602F077F8D5
:1017900007463846BDE8F08114000020856B010043
:1017A000A470090030B50446002000251D700529ED
:1017B00017D2DFE801F003070B0F1300C2F3001587
:1017C0001D7011E0C2F3C0051D700DE0C2F380056D
:1017D0001D7009E0C2F380151D7005E0D5091D706C
:1017E00002E06FF0030000BF00BF30BDF8B5064651
:1017F0000F4614460025002000906A46012130461D
:1018000004F0D4FB05463DB923469DF80020394637
:101810003046FFF7C7FF05462846F8BDF8B506462F
:101820000C460025002000906A460121304604F055
:10183000BDFB05463DB923469DF8002000213046FA
:10184000FFF7B0FF05463DB9A31C9DF8002001211C
:101850003046FFF7A7FF05463DB9631C9DF8002001
:1018600002213046FFF79EFF05463DB9E31C9DF877
:10187000002003213046FFF795FF05463DB9231DA3
:101880009DF8002004213046FFF78CFF05462846CE
:10189000F8BD0246002005230B70704770B5044662
:1018A0000D4600262946204603F057FA06463046E4
:1018B00070BD2DE9F84F05468946164600BF002742
:1018C00006EB4600C0EBC6104FF4004101EBC00030
:1018D0004FEA104A6A464946284601F0A6FE0446E9
:1018E0002CB952464946284601F030FF0446A4B9B7
:1018F000D5F8148041462846FFF7AEF8044664B197
:1019000049462846009A01F021FF074627B941467B
:101910002846FFF7A1F807463C462046BDE8F88F69
:10192000F8B506460F46144600256A463946304645
:1019300001F07BFE05466DB900980002009000980A
:1019400000F5FA704FF47A71B0FBF1F02060206876
:10195000000220602846F8BD2DE9F04104460D46FE
:101960000027B4F8528115B1B8F57A7F01D000266E
:1019700000E0266AC6F3CF022021204604F0C1FA17
:1019800007462FB915B90021217701E00121217700
:101990003846BDE8F08110B502460020137F0B7079
:1019A00010BD2DE9F04104460D461646002732468B
:1019B0002946204601F076FA07463846BDE8F08110
:1019C0002DE9F04104460D461646002732462946C9
:1019D000204601F07EFA07463846BDE8F081014610
:1019E000002006220A8070472DE9F04104460D468A
:1019F0001646002732462946204603F0D8F9074606
:101A00003846BDE8F08130B503460020062901DBE9
:101A1000001F03E003F12E056C5C147030BDF0B5BF
:101A200087B004460E4615460027062E01DB3F1FF1
:101A300036E0062E30D2DFE806F0030710141D262C
:101A4000D4F8400128602AE01C2204F150016846C5
:101A500005F02BFC0398286021E0D4F848012860A9
:101A60001DE01C2204F15001684605F01EFC03989D
:101A7000286014E01C2204F15001684605F015FCB2
:101A8000039828600BE01C2204F15001684605F021
:101A90000CFC0398286002E06FF0030700BF00BF52
:101AA000384607B0F0BD2DE9F04104460D46164614
:101AB0000027B84605B176B90421204601F0B6FAF0
:101AC0004FF4907050F804804FF4C870A4F854019B
:101AD000C4F8588103E0A4F85451C4F8586138465A
:101AE000BDE8F08110B503460020B3F854410C80E6
:101AF000D3F85841146010BD2DE9F84307468846D5
:101B000014461D4600266A460E21384604F064FA43
:101B10000646BDF800000005C008206056B96A46B8
:101B20000C21384604F058FA0646BDF800000005BE
:101B3000C00828603046BDE8F8832DE9FC41064620
:101B40000F460024DA20855D012D03D0022D01D03F
:101B5000032D2ED16B4601AA01213046FFF7CCFFA1
:101B600004460198B0F57F0F03D80098B0F57F0FB9
:101B70001FD9F4B92FB1F849304602F02CF90446C8
:101B800017E00422FF21304604F0A5F904430022A7
:101B90007021304604F09FF904430022FF213046B3
:101BA00004F099F9044300228021304604F093F9AF
:101BB00004432046BDE8FC812DE9FC410646002493
:101BC000012701A93046FFF79EF801228021304607
:101BD00004F081F904460122FF21304604F07BF92C
:101BE000044600221146304604F075F9044696F882
:101BF0003A219121304604F06EF904460122002179
:101C0000304604F068F904460022FF21304604F013
:101C100062F9044600228021304604F05CF9044653
:101C20009DF8040020B1012823D0032843D131E0DE
:101C300001220021304604F04EF904460097BCB959
:101C4000002500BF2DB16A460021304604F0AEF9F0
:101C500004466D1C9DF800003840B84203D114B909
:101C6000B5F5FA6FEED3B5F5FA6F01D36FF0060450
:101C700024E024B901213046FFF75FFF0446022229
:101C80000021304604F027F9044614B9042086F8F0
:101C9000320113E024B901213046FFF74EFF04461C
:101CA00004220021304604F016F9044614B9042039
:101CB00086F8320102E06FF0070400BF00BF204643
:101CC000BDE8FC8138B50546002469462846FFF783
:101CD0001AF8044634B99DF8000018B92846FFF7F1
:101CE0006BFF04461CB9284601F01DF904462CB9C7
:101CF0009DF8000010B9032085F83201204638BD58
:101D000002466FF0620070472DE9F04104460D462F
:101D100016460027012332462946204600F0B6FE2B
:101D200007463846BDE8F08130B504466FF06200E2
:101D300030BD2DE9F04104460D46164600273246D7
:101D40002946204600F0DEFA07463846BDE8F08115
:101D50002DE9F04104460D46164600273246294635
:101D6000204600F063FB07463846BDE8F08170B5B9
:101D70000546002400221146284604F0ACF804462B
:101D80000122FF21284604F0A6F80446002211464D
:101D9000284604F0A0F8044600229121284604F0C9
:101DA0009AF8044601220021284604F094F80446DB
:101DB0000022FF21284604F08EF8044614B90320BF
:101DC00085F8320124B900212846FFF7B6FE044603
:101DD000204670BDF8B505460C4600266A4613211C
:101DE000284604F0E3F806469DF8000000F00700DE
:101DF00020609DF8000000F0180008B16FF00506A3
:101E00003046F8BD2DE9FC4105460C460026DA2097
:101E1000475D042F0DD169462846FFF7DBFF0646D4
:101E20000098042802D10120207013E000202070C7
:101E300010E001AA1421284604F0B8F806464EB96D
:101E40009DF8040000F0010010B10120207001E0B5
:101E5000002020703046BDE8FC8102466FF0620031
:101E600070472DE9F04F93B005460C464FF000083F
:101E70000C230AAA1421284604F012F88046B8F16F
:101E8000000F6BD10020A07520609DF833009DF8F5
:101E9000321000EB012087B2002060609DF82F0017
:101EA0009DF82E1000EB01200004C609E6609DF8A5
:101EB00031009DF8301000EB012080B20F900F9898
:101EC000400220619DF82B009DF82A1000EB0120B4
:101ED0001FFA80F9A4F814909DF828001290B5F824
:101EE00052010D9095F831B10D98B0F57A7F2AD056
:101EF0000D98784300F5FA704FF47A7190FBF1F089
:101F000087B2288C80B20E90287F10901098D0B1A4
:101F10000E9800FB09F0A6EB202040B9BBF1000FA2
:101F200002D042F2B82A0DE048F6E02A0AE007FBA8
:101F300006F10E9800FB09F0A6EB2020B1FBF0F0B3
:101F40001FFA80FA5746BBF1000F08D0B810208165
:101F5000B807000EE07505E00701002013E02781B7
:101F60000020E07511A84B463246CDE900402846D6
:101F7000129902F023FA40EA0808B8F1000F02D1E2
:101F80009DF844002076B8F1000F20D11C2205F105
:101F9000500103A805F089F92089ADF81400E07D0F
:101FA0008DF823006089ADF8160060680490E06841
:101FB000069020690790A08AADF82000207E8DF859
:101FC00024001C2203A905F1500005F06EF94046DB
:101FD00013B0BDE8F08F78B504460D46002600200A
:101FE00000906A4602212046FEF7DEFD06469DF877
:101FF000000018B1D4F84801286001E06FF01D0618
:10200000304678BD02466FF06200704770B50546F5
:102010000E46002400212846FFF736FB04461CB973
:102020002846FFF74FFE044624B931462846FFF7FD
:1020300018FF044624B900212846FEF7B9FE0446DD
:10204000204670BD02460020012900D0001F7047C5
:102050000246002001230B70704702460020012336
:102060000B7070472DE9F84F82460E46174698468A
:10207000DDF82890002539465046FEF744FE054617
:102080004DB916B16FF0090505E06A460A215046C0
:1020900003F08CFF0546C5B99DF8000000F007006D
:1020A00005280ED2DFE800F0030507090B00002425
:1020B0000AE0012408E0022406E0032404E00424EA
:1020C00002E06FF00A0500BF00BF2DB96A46842107
:1020D000504603F06BFF05465DB99DF8000000F027
:1020E000100018B9002089F8000002E0012089F8EA
:1020F000000025B988F80040DA2000F80A40284698
:10210000BDE8F88F2DE9F0470746894614461D467D
:102110000026C4F34B4842460E21384603F0F1FE38
:1021200006463EB9C5F34B4842460C21384603F0FB
:10213000E8FE06463046BDE8F087F8B505460E468F
:102140000024002000900122FF21284603F0C3FE56
:1021500004462CB96A460421284603F027FF0446AA
:102160002CB90022FF21284603F0B5FE04469DF855
:10217000000030609DF8000050BB012280212846FD
:1021800003F0A9FE04460122FF21284603F0A3FE26
:10219000044600221146284603F09DFE044695F8A9
:1021A0003A219121284603F096FE0446012200219F
:1021B000284603F090FE04460022FF21284603F043
:1021C0008AFE044600228021284603F084FE04464D
:1021D0002046F8BD02466FF06200704770B50646B3
:1021E0000D4600240122FF21304603F074FE044610
:1021F0002A464021304603F084FE04430022FF219A
:10220000304603F068FE0443204670BD70B50646B4
:102210000D4600240122FF21304603F05CFE0446F7
:102220002A464021304603F0D7FE04430022FF2116
:10223000304603F050FE0443204670BD2DE9F041C6
:1022400006460D460024EFB20122FF21304603F07E
:1022500042FE04463A464221304603F03CFE044327
:102260000022FF21304603F036FE04432046BDE83D
:10227000F081F8B506460D4600240122FF213046C4
:1022800003F029FE04466A464221304603F08EFEE2
:1022900004430022FF21304603F01DFE04439DF855
:1022A000000028802046F8BD2DE9F04104460D4687
:1022B0001646002732462946204600F056FD0746BE
:1022C0003846BDE8F0812DE9F04104460D4616463A
:1022D000002732462946204600F0A8FD074638462A
:1022E000BDE8F0812DE9F04104460D461646002771
:1022F00032462946204600F0EFFB07463846BDE847
:10230000F08100002DE9F74F8EB00D460024A34662
:1023100000200D900C9000260B9005B9041F24B9E5
:1023200000210E98FFF718FB04462CB90022032168
:102330000E98FEF7BBFF0446002C2FD1A3460020C9
:102340000D900C9000260B9021E004A90E98FFF749
:102350005DFE044604B11DE09DF8280098B9BDF863
:10236000180058441FFA80FB07990C9808440C90F9
:10237000BDF82400C11700EB11610A120D99114438
:1023800089B20D91761C0B98401CC0B20B900B9833
:102390003228DADB00BF0EB96FF00504F4BB0C98ED
:1023A000B0FBF6F003904FEA0B40B0FBF6F80D9847
:1023B0000004B0FBF6F00290029800F500404FEAEE
:1023C000104905F500404FEA104AB9F1000F04D05A
:1023D000BAF1000F01D0A84501D3002712E005F59E
:1023E00000404FEA104A0398B0FBF9F00190B8FBA7
:1023F000FAF0C0F58030019948430190019800F54A
:102400000040070C1098076024B901210E98FFF7CF
:10241000A3FA044614B939460E9800E002E0FFF72B
:10242000F5F80446204611B0BDE8F08F2DE9F74FCE
:102430008AB00E4615460024A046002700200190D1
:1024400006B9041F24B900210A98FEF79CFE044631
:102450002CB902AA00210A98FFF7C8F904462CB942
:10246000002211460A98FEF702FB04462CB900220E
:1024700003210A98FEF71AFF0446FCB94FF0000842
:1024800000270020019012E003A90A98FFF7BEFD83
:10249000044604B10EE09DF8240028B9BDF81400EC
:1024A00040441FFA80F87F1C0198401C019001985D
:1024B0003228E9DB00BF0FB96FF00504D4B94FEA49
:1024C0000840B0FBF7F909F500404FEA104A06F55D
:1024D00000404FEA104BABEB0A004FF47A714843CF
:1024E00028603CB929680A98416229680A98FEF771
:1024F0004AFE044644B99DF8080028B10122002193
:102500000A98FEF7B4FA044620460DB0BDE8F08FF5
:102510002DE9F04780460C464FF00009FD4EFE4F76
:102520004FF4805AB44201DD344602E0BC4200DA86
:102530003C46002C03DBFA2094FBF0F504E0FA2083
:1025400094FBF0F000EB0A05AAB22821404603F004
:10255000D8FC81464846BDE8F0872DE9F843064699
:102560000C46002540F2FF774FF480586A46282138
:10257000304603F031FD0546BDB9BDF80000C0F39B
:102580000B000090BDF80000B84208DDBDF8000067
:10259000A0EB080000B2FA214843206005E0BDF836
:1025A000000000B2FA21484320602846BDE8F883C5
:1025B000F8B5044600250721204600F037FD054602
:1025C00025B969462046FEF758FB05465DB90098D7
:1025D000A060E0680099461831462046FEF7D3FD1A
:1025E000054605B966622846F8BD2DE9F04706465E
:1025F0000F4608214FF000094FF0FF3AC3F800A042
:10260000B2FBF1FCB2FBF1FA01FB1A28604619E0BB
:102610000024355C604502D145FA08F544460DE0DA
:1026200005F0010ABAF1000F06D04FF0010900FBD6
:10263000014AC3F800A003E06D10641C8C42EFD384
:1026400000BF401CB84202D2B9F1000FE0D0BDE893
:10265000F087014601208A09B04B53F8223003B9B4
:1026600000207047F0B503460C4600200825B2FB59
:10267000F5F1B2FBF5F705FB1726A14202D36FF087
:10268000310007E05F5C4FF0010C0CFA06FC47EAF2
:102690000C075F54F0BD2DE9F04F044689461546FE
:1026A000DDF8248000200826002200218646B5FBA4
:1026B000F6F7B5FBF6FB06FB1B5A4F4501D36FF04F
:1026C00031004FF0000BC3F800B0002225E014F8F1
:1026D00002C000211EE00CF0010BBBF1000F16D070
:1026E000D3F800B00BF1010BC3F800B0BEF1000F3E
:1026F0000DD14FF0010B88F800B0022A05D2042951
:1027000003D24FF0000B88F800B04FF0010E4FEAF3
:102710006C0C491CB142DED9521CA7F1010B934548
:10272000D5D214F807C000210BE00CF0010BBBF16F
:10273000000F05D0D3F800B00BF1010BC3F800B0C7
:10274000491C5145F1D9BDE8F08F70B505460C46DE
:1027500006232246B021284603F084FB0646304675
:1027600070BD70B505460C4606232246B0212846AA
:1027700003F096FB0646304670BD2DE9FF4F85B04D
:10278000884691461D46DDF850B0DDF848A0002689
:10279000CDF80CB05F46002004901FE003AB3A4632
:1027A00051464846FFF721FF0398401C10B96FF0CF
:1027B000310617E0039A13998818FFF74AFF40453E
:1027C00002D06FF031060DE0039F3A46514628468D
:1027D000FFF748FF7F1C0498401C0490159904984B
:1027E0008842DBD300BF1698076026B929460598B2
:1027F000FFF7ABFF064696B901A90598FFF7B1FFB1
:102800000646002408E0285D01A9095D884202D03F
:102810006FF0310602E0641C5445F4D300BF30462B
:1028200009B0BDE8F08FF0B587B005460E4600242C
:10283000002795F830712CB9C0220121284603F0F9
:102840004AFB044624B969462846FFF7DFFB0446E5
:102850002CB90122FF21284603F03DFB04462CB988
:102860003246B621284603F0B7FB04462CB90022B5
:10287000FF21284603F02FFB044644B93A460121C4
:10288000284603F028FB04460CB985F83071204631
:1028900007B0F0BD2DE9F84F80460D4691469A46A7
:1028A000DDE90BB60D9F0024002000900122FF21DE
:1028B000404603F010FB044300221146404603F05B
:1028C0000AFB04430022FF21404603F004FB0443BB
:1028D00075B12EB1CB2140460A9A03F067FB044341
:1028E000AFB16A46EE21404603F060FB04430EE0C0
:1028F0002EB14A46CB21404603F0EDFA044337B1EE
:1029000053468022EE21404603F027FB0443012278
:10291000FF2105E018CC07000030F8FFC0020020BE
:10292000404603F0D8FA044301220021404603F058
:10293000D2FA04430022FF21404603F0CCFA0443BC
:102940009DF8000000F0EF008BF800002046BDE885
:10295000F88F70B506460D46002434B945F00102E3
:102960000021304603F0B7FA04461CB9304600F0A7
:10297000DAFA044624B900213046FEF719FA044673
:102980002CB900221146304603F0A5FA0446204631
:1029900070BD2DE9F04F85B005460E4690461F46A6
:1029A0000024A146A246A3460FB195F83091022219
:1029B0000121284603F08FFA044624B90021284655
:1029C000FFF7C7FF04468CB9B8F1010F0ED1012003
:1029D000002104AA5B46CDE90026CDE9021052464B
:1029E00001462846FFF756FF044601E000203070FC
:1029F0004CB947B14A460121284603F06CFA044617
:102A00000CB985F83091204605B0BDE8F08F2DE96E
:102A1000F04F85B005460E4690461F460024A1465D
:102A2000A246A346002004900FB195F830910122F0
:102A30001146284603F04FFA044624B9402128469F
:102A4000FFF787FF044684B9B8F1010F0DD10020CC
:102A5000012104AA5B46CDE90062CDE9021052468D
:102A60002846FFF717FF044601E0002030704CB9FC
:102A700047B14A460121284603F02DFA04460CB915
:102A800085F83091204605B0BDE8F08F2DE9F0477C
:102A90000546894616461F460024A04695F8308113
:102AA00000233A4649462846FFF7B1FF044634B9A9
:102AB00000233A4631462846FFF76BFF044644B9E7
:102AC00042460121284603F006FA04460CB985F86F
:102AD00030812046BDE8F0872DE9F74F94B00446D9
:102AE00000254FF0B40B032011902C2010900026ED
:102AF00000200F900E904FF42067804681464FF0E3
:102B0000060A0C900B900A90099008900790069086
:102B1000B4F83C7100BF06E0002104F5927000F8A3
:102B2000091009F10109D145F6D30122FF21204600
:102B300003F0D1F905462DB900224F21204603F0BC
:102B4000CAF905462DB92C224E21204603F0C3F9BF
:102B500005462DB90022FF21204603F0BCF90546A9
:102B60002DB95A46B621204603F0B5F905462DB9D0
:102B700000228021204603F0AEF9054635B9002336
:102B800008AA09A92046FFF781FF05468DB900264E
:102B90000F96B0460FA91198CDE900ABCDE90260C0
:102BA0000491414604F592739A1D2046FFF7E5FD16
:102BB0000546002D44D10F9E0DA92046FFF733FE98
:102BC0000546002D3AD1BDF83400B84236DDA9469D
:102BD00006E0002104F5927000F8091009F10109DE
:102BE000D145F6D300E0761C0BEB0600FFF731FD74
:102BF00010B910988642F6D34FF001080FA911982A
:102C0000CDE900ABCDE902600491414604F5927331
:102C10009A1D2046FFF7B1FD05468DB90F9E0DA9FF
:102C20002046FFF700FE054655B9BDF83400B8420E
:102C300006DD012006901198079001E04FF0000892
:102C4000002D7CD1BDF83400B84278DA08F0FF00DE
:102C5000069011980790524604F5927112A804F05C
:102C600024FBBDF83410C81B002801DB014600E03E
:102C700041420B9100200A905DE00EAB3246514676
:102C800004F59570FFF7B1FC0E98401C10B96FF079
:102C9000310553E00E990BEB0100FFF7DAFC4045DC
:102CA00002D001200A9049E00798401C07900E9E30
:102CB0003246514604F59270FFF7D4FC054635B90B
:102CC000761C04F592712046FFF73FFD054605B1DD
:102CD00034E00DA92046FFF7A6FD054605B12DE01D
:102CE000BDF83410C81B002801DB014600E041425A
:102CF0000C91BDF83400B84215DDDDE90B108842B7
:102D00000DD912A92046FFF720FD0546524612A90B
:102D100004F5927004F0C9FA0798401E079001204C
:102D20000A9008E00BE00C980B90524604F5927163
:102D300012A804F0BAFA0A9800289ED000BF85B9FC
:102D4000159907980860169906980870012184F86B
:102D500015111598017884F813111698017884F8E4
:102D60001411284617B0BDE8F08F2DE9F04F87B059
:102D7000044689461646002500274FF0B40A4FF056
:102D8000060B2C2006900122FF21204603F0A3F819
:102D900005462DB900224F21204603F09CF8054638
:102DA0002DB92C224E21204603F095F805462DB969
:102DB0000022FF21204603F08EF805462DB9524629
:102DC000B621204603F087F805464FF0000806E0DC
:102DD000002104F5927000F8081008F10108D845A8
:102DE000F6D34EB100E07F1C0AEB0700FFF731FC81
:102DF00010B906988742F6D305A804F592739A1D78
:102E00003146CDE900BACDE9027904902046FFF7BA
:102E1000B4FC054635B9012184F8151184F81391E5
:102E200084F81461284607B0BDE8F08F2DE9F0471B
:102E300086B004460D46164600274FF02C094FF089
:102E4000060A0020029094F81581B8F1010F06D10E
:102E500094F81301286094F8140130701EE004A95E
:102E60002046FFF77EFC0746C7B902A803AB4A46D7
:102E70005146009004A8FFF70EFC074677B9039867
:102E800028609DF808003070012184F8151103981E
:102E900084F813019DF8081084F81411384606B020
:102EA000BDE8F087F0B587B006460C46154600270A
:102EB000012005AA06ABCDE90120009303902B4623
:102EC000224600213046FFF7E5FC0746384607B0AA
:102ED000F0BD2DE9FF4706460C4615460027B846CB
:102EE000B9460120CDE901504B46424601460094C7
:102EF00003903046FFF7CEFC0746384604B0BDE8E5
:102F0000F0870000F0B502460B4600205E08002165
:102F100006E05F1A7C1E555C175D57541555491C19
:102F2000B142F6D3F0BDF8B506460024002000906B
:102F3000002500BF69463046FEF764FF044604B131
:102F40000FE09DF80000012800D10AE06D1CB5F5E6
:102F5000FA6F02D36FF0060403E0304603F068F81E
:102F6000E8E700BF2046F8BD014600204A1C520693
:102F7000100E7047014600200122C2EB6102D0B260
:102F80007047024600204FF0804100E089089142DE
:102F9000FCD809E04318934204D84318D21A01EB35
:102FA000500000E0400889080029F3D1704770B54F
:102FB00005460C460026B5F5803F02D2B4F5803FA9
:102FC00002D34FF6FF7606E005FB05F104FB041083
:102FD000FFF7D7FF0646304670BDF8B50646002419
:102FE00000228321304602F076FF0443B4B9002565
:102FF00000BF6A468321304602F0D8FF04469DF8A0
:10300000000000B904B103E06D1CB5F5FA6FF0D310
:1030100000BFB5F5FA6F01D36FF0060401228321DA
:10302000304602F058FF04432046F8BD2DE9F04F2A
:1030300093B005460F46002400200E900D900C9092
:103040000B90824683464FF4C8500A904FF0000917
:10305000002009900290F020465D072E7ED00122CC
:103060008021284602F037FF04430122FF21284631
:1030700002F031FF044300221146284602F02BFFE4
:1030800004430622FF21284602F025FF044312AA2A
:103090008321284602F08AFF04439DF8480040F04F
:1030A00004028321284602F016FF04430722FF2171
:1030B000284602F010FF044301228121284602F035
:1030C0000AFF0443284602F0B3FF04430122802193
:1030D000284602F000FF044307F00100002855D005
:1030E00006F00100002851D16B229421284602F0FD
:1030F000F2FE04432846FFF770FF044311AA902113
:10310000284602F07FFF04431198C0F306200E907A
:103110001198C0F3C0300D9024229421284602F06B
:10312000DAFE04432846FFF758FF044311AA902112
:10313000284602F067FF04431198000E8DF8000046
:103140001198000C8DF801001198000A8DF802000A
:103150001198C0B28DF80300252200E0A4E194216B
:10316000284602F0B8FE04432846FFF736FF044322
:1031700011AA9021284602F045FF04431198000E41
:103180008DF804001198000C8DF8050007F002007E
:1031900002287DD106F002000028FAD102229421F3
:1031A000284602F098FE04432846FFF716FF044322
:1031B00010AA9021284602F0F9FE04437B229421B4
:1031C000284602F088FE04432846FFF706FF044322
:1031D0000FAA9021284602F0E9FE044377229421A9
:1031E000284602F078FE04432846FFF7F6FE044323
:1031F00011AA9021284602F005FF04437F2111986F
:1032000001EA50608DF810001198C0F386408DF8E7
:1032100011001198C0F3C6208DF812001198C0F368
:1032200006108DF8130011980007400E12907822B6
:103230009421284602F04FFE04432846FFF7CDFEB6
:10324000044311AA9021284602F0DCFE04437F21AA
:10325000119801EA50709DF848100844C0B28DF8EA
:1032600014001198C0F386508DF815001198C0F322
:10327000C6308DF816001198C0F306208DF817009F
:103280001198C0F346008DF818001198C00700E0AF
:103290005FE0400E129079229421284602F01BFE36
:1032A00004432846FFF799FE044311AA90212846BB
:1032B00002F0A8FE04437F21119801EA90609DF876
:1032C00048100844C0B28DF819001198C0F3C640E8
:1032D0008DF81A001198C0F306308DF81B00119874
:1032E000C0F346108DF81C001198C006400E1290D5
:1032F0007A229421284602F0EEFD04432846FFF787
:103300006CFE044311AA9021284602F07BFE044380
:103310007F21119801EA90709DF848100844C0B2CE
:103320008DF81D001198C0F3C6508DF81E0011983D
:10333000C0F306408DF81F001198C0F346208DF8A9
:1033400020001198C0F386008DF8210000208DF830
:10335000220007F00400042873D106F004000028BE
:103360006FD17B229421284602F0B5FD0443284604
:10337000FFF733FE04430CAA9021284602F042FED8
:1033800004437C229421284602F0A5FD04432846EC
:10339000FFF723FE04430BAA9021284602F032FED9
:1033A000044373229421284602F095FD04432846E5
:1033B000FFF713FE044311AA9021284602F022FED3
:1033C000044311980006000C0990742294212846A9
:1033D00002F081FD04432846FFF7FFFD044311AAD4
:1033E0009021284602F00EFE04431199099840EA04
:1033F0001160099075229421284602F06CFD044367
:103400002846FFF7EAFD044311AA9021284602F05E
:10341000F9FD0443119800064FEA104976229421E1
:10342000284602F058FD04432846FFF7D6FD044322
:1034300011AA9021284602F0E5FD0443119849EABB
:10344000106900228121284602F045FD044306222E
:10345000FF21284602F03FFD044312AA832128469B
:1034600002F0A4FD04439DF8480000F0FB02832114
:10347000284602F030FD04430122FF21284602F0D5
:103480002AFD044301220021284602F024FD0443C2
:103490000022FF21284602F01EFD04430022802165
:1034A000284602F018FD0443002C60D1072E5ED0A0
:1034B00007F00100A8B106F0010090B90E9885F858
:1034C00013010D9885F81401A04607E01DF80810B7
:1034D00005F5957000F8081008F10108B8F1060F1D
:1034E000F4DB07F00200022811D106F0020070B9E7
:1034F0009DF84010F12041559DF83C10F2204155B7
:1035000005F1F300039004A9039803F0AAFE07F065
:103510000400042824D106F0040008BB4FF48C708A
:103520000C994151001D0B9941510998400202909C
:103530004FF49071029848514FF0000BB9F1000F11
:103540000CD00A98A9EB000A4FF47A700AFB00F03D
:103550004FEA101BCBF100000FFA80FBC5F80CB04E
:1035600046EA070012909DF84810F0204155204689
:1035700013B0BDE8F08FE0B5064640F277634FF434
:10358000106202FB01F5A5FB0307E0BD10B5014683
:1035900000200022002361B14A1E02E052085C1C98
:1035A000A3B222F0FF04002CF8D1144663F31F24C9
:1035B000A0B210BD01460020CAB20B0A9A40501CAE
:1035C00070472DE9F04307460C46154600BF2946D3
:1035D0003846FFF7D0FF814609F5FA704FF47A714B
:1035E000B0FBF1F60846604300EB5600B0FBF6F87E
:1035F0004046BDE8F0832DE9F04306460C461546EB
:10360000002729463046FFF7B6FF804608F5FA70D6
:103610004FF47A71B0FBF1F904FB09F000F5FA7090
:10362000B0FBF1F73846BDE8F0832DE9F04F87B0E5
:1036300082460D46174600240020059083460490DC
:1036400081461DB1012D01D0022D1AD106AA0021FB
:103650005046FDF7F2F904462CB905AA462150461A
:1036600002F0A4FC04469DF81400FFF7A3FF1FFA24
:1036700080F89DF8182041465046FFF7BCFF83466E
:103680005EE0032D21D106AA00215046FDF7D5F9B1
:103690000446002C54D106AA00215046FDF7CDF96E
:1036A00004462CB904AA5121504602F095FC044668
:1036B000BDF81000FFF77EFF86B29DF81820314656
:1036C0005046FFF798FF83463AE0042D38D101A910
:1036D0005046FEF7A3F800269DF8070088B106AA19
:1036E00000215046FDF7A9F9044654B904AA512116
:1036F000504602F071FC0446BDF81000FFF75AFF77
:1037000086B22CB906AA01215046FDF796F9044667
:103710005CB903AA7121504602F05EFC0446BDF874
:103720000C00FFF747FF1FFA80F9A9EB06001FFA0C
:1037300080F99DF8182049465046FFF75CFF834604
:10374000C7F800B0204607B0BDE8F08F2DE9F04F74
:1037500085B006460D46174600241DB1012D01D047
:10376000022D23D104AA00213046FDF766F9044654
:103770009CB99DF8102039463046FFF722FF1FFA0A
:1037800080FABAF5807F02DD4FF0FF0803E0AAF16E
:10379000010000F0FF08A6F8D880002C6BD142464B
:1037A0004621304602F097FB044664E0032D23D106
:1037B000ACB904AA00213046FDF73FF904469DF854
:1037C000102039463046FFF7FCFE1FFA80F94846C4
:1037D000FFF7DCFE0390BDF80C10D820815334B9FC
:1037E000BDF80C205121304602F08BFB0446002C22
:1037F00041D1E42087513EE0042D3AD1694630465C
:10380000FEF70CF84FF000099DF8030090B104AAF0
:1038100000213046FDF711F904465CB903AA512195
:10382000304602F0D9FB0446BDF80C00FFF7C2FE9B
:103830001FFA80F92CB904AA01213046FDF7FDF8E2
:103840000446C4B99DF8102039463046FFF7B9FE4A
:103850008346CB445846FFF799FE02902CB971215C
:103860003046029A02F04DFB044624B9DC20875111
:1038700001E06FF00304204605B0BDE8F08F2DE9AC
:10388000F04F87B007460E46154600244FF00C094E
:103890004FF0120A4FF0080B0E2005900020019007
:1038A000284605EBD0714910A5EB410109B1241F51
:1038B00010E036B94D4501DB554502DD6FF00304DC
:1038C00008E0012E06D15D4502DB0598854201DD49
:1038D0006FF003041CB1204607B0BDE8F08FDEBBDB
:1038E0000C2D0CD118225721384602F0F4FA044668
:1038F00008225621384602F0EEFA0446E2E00E2D88
:103900000CD130225721384602F0E5FA044608224D
:103910005621384602F0DFFA0446D3E0102D0CD1D0
:1039200040225721384602F0D6FA04460822562192
:10393000384602F0D0FA0446C4E0122DDED15022FF
:103940005721384602F0C7FA044608225621384665
:1039500002F0C1FA0446B5E0FFE7012ECED1082DF2
:103960002AD110224821384602F0B5FA044608222E
:103970004721384602F0AFFA044602223221384687
:1039800002F0A9FA04430C223021384602F0A3FACF
:1039900004430122FF21384602F09DFA04433022FD
:1039A0001146384602F097FA04430022FF213846B8
:1039B00002F091FA044385E00A2D2AD128224821F9
:1039C000384602F088FA044608224721384602F0B9
:1039D00082FA044603223221384602F07CFA04437C
:1039E00009223021384602F076FA04430122FF21F1
:1039F000384602F070FA044320223021384602F0A3
:103A00006AFA04430022FF21384602F064FA0443B4
:103A100058E00C2D2AD138224821384602F05BFAB2
:103A2000044608224721384602F055FA044603228C
:103A30003221384602F04FFA04430822302138463A
:103A400002F049FA04430122FF21384602F043FA0A
:103A5000044320223021384602F03DFA044300227C
:103A6000FF21384602F037FA04432BE00E2D29D10E
:103A700048221146384602F02EFA04460822472111
:103A8000384602F028FA044603223221384602F072
:103A900022FA044307223021384602F01CFA04437C
:103AA0000122FF21384602F016FA04432022302179
:103AB000384602F010FA04430022FF21384602F093
:103AC0000AFA0443002C47D12846FFF753FA069020
:103AD00016B1012E3CD124E003AA03213846FFF79A
:103AE000A4FD04462CB902AA02213846FFF79DFD29
:103AF00004462CB950213846069A02F0ECF90446E7
:103B00002CB903213846039AFFF720FE04462CB94E
:103B100002213846029AFFF719FE0446E820C555EF
:103B200019E004AA04213846FFF77FFD04462CB9AA
:103B300070213846069A02F0CEF904462CB90421C9
:103B40003846049AFFF702FE0446E020C55502E01D
:103B50006FF0030400BF00BF34B9D7F814804146AA
:103B60003846FCF779FF044634B90123002201A945
:103B70003846FEF70EFF04462046ADE6F8B5074688
:103B80000C461546002614B1012C0ED106E06A46FB
:103B90005021384602F00AFA064609E06A467021CA
:103BA000384602F003FA064602E06FF0030600BF53
:103BB00000BF26B99DF80000FFF7D6F928703046FF
:103BC000F8BD2DE9F04F89B080460F4600264FF42E
:103BD000FA60069040F276794FF4707A4FF4257BC4
:103BE00040F24E20059040F2B220049058460390D7
:103BF00040F2262002900020019044F620600090C0
:103C000000250098874204D22E1F304609B0BDE837
:103C1000F08F09EB0A003C1A07A94046FDF7FEFDAC
:103C20000646002E3BD19DF81C0030B99DF81D00C2
:103C300018B99DF81E00002831D006AA022140467E
:103C4000FFF7F3FC06460EB13046DFE79DF81C0097
:103C500040B1DDE905010D18A54201D2641B01E068
:103C60006FF003060EB13046D0E79DF81E0050B14C
:103C70000699049808444500A54201D2641B0EE051
:103C80006FF003060BE09DF81D0040B1069800EBB5
:103C90000B05A54201D2641B01E06FF003060EB1D3
:103CA0003046B3E79DF81F0070B101AA03214046DA
:103CB000FFF7BBFC0646019903980D18A54201D2F7
:103CC000641B01E06FF0030666B99DF8200048B15F
:103CD0000298241A224604214046FFF737FD064683
:103CE000C8F81470304691E72DE9F04F87B00646CA
:103CF0000C4600254FF4FA60039040F276774FF4BB
:103D000070784FF4257940F24E2A40F2B22B4846A3
:103D1000029040F2262001900020009007EB08005E
:103D2000206005A93046FDF779FD05461DB12846FE
:103D300007B0BDE8F08F9DF8140028B99DF8150074
:103D400010B99DF8160008B303AA02213046FFF708
:103D50006CFC0546D5B99DF8140020B12068039984
:103D60005144084420609DF8160038B1206803993A
:103D70005944022202FB0100206007E09DF8150073
:103D800020B12068039949440844206075B99DF822
:103D9000170058B16A4603213046FFF746FC054636
:103DA0002168009A029810440844206075B99DF873
:103DB000180058B104AA04213046FFF736FC054626
:103DC0002168049A01981044084420600DB92168C4
:103DD00071612846ACE72DE9FF5F06460D460020DD
:103DE0000390002463E02F5D641CFF2F44D1285D05
:103DF0000290641C029830B1012811D002281CD016
:103E0000032834D126E015F80480641C15F80490CA
:103E1000641C09EB08201FFA80FAA6F834A12AE0F6
:103E200015F80480641C15F80490641C09EB082044
:103E30001FFA80FAA6F836A11DE015F80480641C6C
:103E400015F80490641C09EB08201FFA80FAA6F804
:103E500038A110E015F80480641C15F80490641C67
:103E600009EB08201FFA80FAA6F83CA103E06FF0E6
:103E70000300039000BF1AE0042F15DC285D0190B9
:103E8000641C4FF0000B05E0285D0DF80B00641C6E
:103E90000BF1010BBB45F7DB3B466A463046019907
:103EA00001F0E0FF039002E06FF003000390285D53
:103EB00010B10398002896D0039804B0BDE8F09F95
:103EC0002DE9F84305460E461446002700202060E1
:103ED00069462846FDF75FFD07465FB99DF800007B
:103EE00040B1D5F82080B08A00FB08F909F18000C4
:103EF000000A20603846BDE8F883F8B507460D464D
:103F000014460026E86820606A4629463846FFF7CE
:103F1000D7FF06461EB92068009908442060304645
:103F2000F8BD2DE9FF4F90B01746DDF878801220DC
:103F30000F904FF480400E9042200D9006200C9080
:103F400007200B90002000901098B0F854010A90C0
:103F50001098D0F858010990DDE9091000FB01FA2A
:103F60000AF180004FEA102A0A980AFB00FA00259D
:103F70006FB1119880020190019800EB5705B5FBD5
:103F8000F7F505EB45056D4305F50040050C1D995A
:103F9000139848430890089800F50040000C0890DA
:103FA00008984043089008F50040000C02900298E1
:103FB000C01C0621B0FBF1F002900298C0EBC000DB
:103FC00002900298B0F5803F02D3F84807900DE0C8
:103FD00008F103000621B0FBF1F8C8EBC80808F5AA
:103FE0000040000C079007984043079040F22710CC
:103FF000059005984043059041F204100490049800
:10400000083000090490DDE90410401A0590059875
:1040100000EB400000010690069800F50050800B70
:104020000690DDE9071044181F9804EB50041F9810
:10403000B4FBF0F4A403069804EB50040698B4FB18
:10404000F0F46C4304F5FA704FF47A71B0FBF1F4BC
:10405000240104F5FA70B0FBF1F44FF04009B9F116
:10406000000F05D00AEB5900B0FBF9F0039001E016
:10407000002003900398FEF784FF834624B10AEBE7
:104080005400B0FBF4F600E000263046FEF779FF5E
:1040900006462098C0F800B0B34501D920980660C4
:1040A000009814B0BDE8F08F2DE9FF4FABB0054686
:1040B00088464FF448702A904FF4167029904FF4B8
:1040C000C810289041F25C202790B94826904FF400
:1040D00070402590B7482490B74823904FF4004093
:1040E00022904FF44810219040F27760209000BF5A
:1040F000286A15904FF47A71D8F810004843000CE4
:104100001690D8F80C000C900DAA41462846FFF7EF
:10411000F4FE15AA41462846FFF7D2FE13904FF44D
:104120007A710D9800FB01F707F50040070C159810
:10413000484314901498B0F5481F02D94FF4481022
:1041400014901398002849D1DC2040591E90E0209B
:10415000405D06902846069A1E99FFF732FA0990AC
:10416000E42040591D90E820405D05902846059ABE
:104170001D99FFF726FA089003200A900698082850
:1041800001D102200A900A98C002DDE90812114408
:1041900048430790079800F5FA704FF47A71B0FB26
:1041A000F1F0079040F2776107984843079007982D
:1041B00000F5FA704FF47A71B0FBF1F007900D98AA
:1041C0008030000A0D9007990D9848431F901F9862
:1041D0008030000A1F900D9800020D90139818B1BE
:1041E00013982FB0BDE8F08F4FB971492D98016039
:1041F0000846C5F8400100212E980160D4E01F98C0
:1042000008B901201F904FF448701B9016980004C5
:10421000B0FBF7F66748864200D906464FF41670A1
:1042200046431F9901EB41018800FEF7AAFE4000BA
:104230001A90B8F808006049484319901498400053
:10424000C0EB074000F5FA704FF47A71B0FBF1F063
:104250001290481000EB0740B0FBF1F11191129859
:1042600000021290DDE91112B2FBF1F0002801DB2F
:10427000014600E04142179117980002179098F804
:10428000180010B14FF4803410E041F25C2119980D
:10429000B0FBF1F41798C0F58030444304F50040BA
:1042A000040C04F5803464086443A40B1B9804FBDD
:1042B00000FA0AF500404FEA104A0AFB0AFAB34630
:1042C0000BF500404FEA104B0BFB0BFB0AEB0B000E
:1042D00010901098FEF755FE0F900F9800040F9065
:1042E0000F9832306421B0FBF1F11A98B1FBF0F96C
:1042F00040F6B53009FB00F941F2883081444000B6
:10430000B9FBF0F9B9F5704F01D94FF47049DDE907
:104310001D10084400F5FA704FF47A71B0FBF1F00B
:104320001C904FF4C8111C9801EB5001B1FBF0F048
:104330000490FEF726FE0B900B9800020B900B9852
:1043400000F5FA704FF47A71B0FBF1F00B9009FBB5
:1043500009FA0B9800FB00FB0AEB0B00FEF711FEBD
:104360000E904FF47A710E98484318902FB11F9811
:1043700018B10F491898884201D90D4818902D9905
:10438000189808602D980068C5F84001079A1B9995
:104390002E982346CDE90162009103902846DDE97D
:1043A0000C21FFF7BEFD139013981AE70000F0FFF1
:1043B000AE878F02666666009A9906002DE9FF4F68
:1043C0008FB007469946DDE91CA6002500200E9017
:1043D0000D900C900B900A90099008900024029088
:1043E00001901098C0F3C3045CB1052C09D0072CD0
:1043F00007D00C2C05D00D2C03D00E2C01D00F2C87
:1044000002D14FF0010B01E04FF0000B2DB90BAAC8
:1044100000213846FCF7C8FB05469DF82C00D0B1BA
:10442000CDB901AB07AA51463846FFF73DFE054618
:1044300015B90198AAF80A006DB906AA00213846F4
:10444000FCF7C0FB0546069828B1DDE90610884256
:1044500001D901200E902DB909AA02213846FCF796
:10446000A3FB05469DF8240050B34DBB05AA0221CD
:104470003846FCF7A7FB05462DB90122FF21384637
:1044800001F029FD05462DB902AAB621384601F0F2
:10449000A3FD05462DB90022FF21384601F01BFD82
:1044A0000546BDF80800400200900098C7F8480192
:1044B000059828B105990098884201D901200D90EE
:1044C0002DB908AA03213846FCF76EFB05469DF876
:1044D0002000C8B1C5B9B9F1000F02D10020039086
:1044E00004E011980002B0FBF9F0039004AA032144
:1044F0003846FCF767FB0546049828B1DDE903015F
:10450000884201D201200C9035BBBBF1010F02D1D2
:10451000FF20307028E0012C03D0022C01D0032CA6
:1045200002D1052030701FE0062C01D0092C02D1E9
:104530000420307018E0082C04D00A2C02D00D980A
:10454000012802D1032030700EE0042C02D00C9818
:10455000012802D10220307006E00E98012801D116
:10456000307001E000203070307810B90020AAF8D7
:104570000A000AAA01213846FCF716FB054675BB5E
:104580009DF82C0010B10E98012802D14FF00108BF
:1045900001E04FF0000887F82E80042C02D09DF82F
:1045A000280010B94FF0010801E04FF0000887F82B
:1045B0002F809DF8240010B10D98012802D14FF0F2
:1045C000010801E04FF0000887F830809DF82000D6
:1045D00010B10C98012803D14FF0010802E003E06C
:1045E0004FF0000887F83180284613B0BDE8F08FFF
:1045F0002DE9F04704460D461646002702212046C5
:10460000FEF714FD0746AFB994F8F180B8F1000F3A
:1046100006D100202870D0A0007886F8400009E07C
:10462000F220005D287004F1F309494606F14000CC
:1046300002F017FE3846BDE8F0877CB506460C460A
:104640000025224669463046FFF7D2FF0546002D79
:1046500026D19DF8000020B9C0A1204602F001FE3D
:1046600019E09DF80000222808DC9DF800002028B1
:1046700004D0BDA1204602F0F4FD0CE09DF800003E
:10468000272804DABBA1204602F0EBFD03E0BCA121
:10469000204602F0E6FDC0A104F1200002F0E1FD99
:1046A00035B904F16002C021304601F07FFC0546B7
:1046B0006DB901AAC221304601F078FC05460120FF
:1046C00084F861009DF80400000984F8620028461F
:1046D0007CBD70B504460D4600260F2C54D2DFE891
:1046E00004F0080D12171C21262B30353A3F44499F
:1046F0004E00ABA1284602F0B4FD4AE0ABA128462B
:1047000002F0AFFD45E0B1A1284602F0AAFD40E06D
:10471000B5A1284602F0A5FD3BE0B8A1284602F06D
:10472000A0FD36E0BBA1284602F09BFD31E0BDA113
:10473000284602F096FD2CE0C0A1284602F091FD2B
:1047400027E0C5A1284602F08CFD22E0C5A128463D
:1047500002F087FD1DE0C9A1284602F082FD18E0A5
:10476000CAA1284602F07DFD13E0CCA1284602F044
:1047700078FD0EE0D0A1284602F073FD09E0D5A136
:10478000284602F06EFD04E0DAA1284602F069FD39
:1047900000BF00BF304670BD70B504460D46002610
:1047A000062C22D2DFE804F003080D12171CD6A154
:1047B000284602F056FD1DE0D7A1284602F051FD23
:1047C00018E0D9A1284602F04CFD13E0DAA12846F2
:1047D00002F047FD0EE0DCA1284602F042FD09E0B0
:1047E000DDA1284602F03DFD04E0DFA1284602F0ED
:1047F00038FD00BF00BF304670BD70B504460D46A1
:104800000026204614F1080F54D01DDC10F1140FBF
:1048100064D00CDC10F1630F77D010F1320F6FD041
:1048200010F1280F64D010F11E0F73D15BE010F16E
:104830000C0F30D010F10B0F4BD010F10A0F43D0FA
:1048400010F1090F66D13AE0C01D082862D2DFE8F6
:1048500000F02C271D18130E0904C7A1284602F0EA
:1048600000FD5CE0C7A1284602F0FBFC57E0CCA1AC
:10487000284602F0F6FC52E0CEA1284602F0F1FCF8
:104880004DE0D0A1284602F0ECFC48E0D4A1284637
:1048900002F0E7FC43E0D7A1284602F0E2FC3EE04C
:1048A000DAA1284602F0DDFC39E0DBA1284602F05F
:1048B000D8FC34E0DCA1284602F0D3FC2FE0E1A1D3
:1048C000284602F0CEFC2AE0E3A1284602F0C9FC0B
:1048D00025E0E6A1284602F0C4FC20E0EAA1284633
:1048E00002F0BFFC1BE0EEA1284602F0BAFC16E085
:1048F000F1A1284602F0B5FC11E006E000E009E075
:10490000F3A1284602F0ADFC09E0F8A1284602F028
:10491000A8FC04E077A1284602F0A3FC00BF00BF7A
:10492000304670BD70B504460D460026032C0ED0EF
:1049300005DC5CB1012C0BD0022C0AD1ECE1042C7B
:1049400008D0622C07D0632C03D1F9E1DAE1E8E169
:10495000DDE1FAE1EAE1EEE100000000564C35331A
:104960004C30582054533000564C35334C3058207E
:1049700054533100564C35334C3058205453320088
:10498000564C35334C305820455331206F72206CD3
:104990006174657200000000564C35334C3058008D
:1049A0004E6F205570646174650000005643534596
:1049B0004C20436F6E74696E756974792054657309
:1049C00074204661696C757265000000564353455A
:1049D0004C205761746368646F672054657374205A
:1049E0004661696C757265004E6F205648562056B8
:1049F000616C756520666F756E6400004D5352439F
:104A0000204E6F20546172676574204572726F7218
:104A100000000000534E5220436865636B204578C8
:104A20006974000052616E6765205068617365208B
:104A3000436865636B204572726F72005369676DDE
:104A400061205468726573686F6C642043686563A5
:104A50006B204572726F7200544343204572726F2F
:104A600072000000506861736520436F6E73697354
:104A700074656E6379204572726F72004D696E20A5
:104A8000436C6970204572726F72000052616E67EC
:104A90006520436F6D706C657465000052616E67D0
:104AA0006520416C676F20556E646572666C6F7728
:104AB000204572726F72000052616E676520416C12
:104AC000676F204F7665726C6F77204572726F72D8
:104AD0000000000052616E67652049676E6F726565
:104AE000205468726573686F6C64204572726F72CF
:104AF00000000000556E6B6E6F776E204572726F0E
:104B00007220436F6465000052616E6765205661D4
:104B10006C696420202000005369676D6120466144
:104B2000696C2020202000005369676E616C20466C
:104B300061696C20202000004D696E2052616E6713
:104B400065204661696C00005068617365204661AC
:104B5000696C2020202000004861726477617265D2
:104B6000204661696C2000004E6F205570646174AE
:104B700065202020202000004E6F204572726F7249
:104B80000000000043616C6962726174696F6E209D
:104B90005761726E696E67204572726F7200000015
:104BA0004D696E20636C6970706564206572726F08
:104BB00072000000556E646566696E6564206572FA
:104BC000726F7200496E76616C6964207061726107
:104BD0006D6574657273206572726F7200000000FB
:104BE0004E6F7420737570706F7274656420657297
:104BF000726F7200496E74657272757074206E6F98
:104C00007420436C656172656400000052616E67D8
:104C100065206572726F720054696D65206F7574DE
:104C2000206572726F7200004D6F6465206E6F7444
:104C300020737570706F72746564206572726F7224
:104C40000000000042756666657220746F6F207305
:104C50006D616C6C000000004750494F206E6F740E
:104C6000206578697374696E670000004750494F8A
:104C70002066756E6374206E6F7420737570706F2C
:104C80007274656400000000436F6E74726F6C2074
:104C9000496E74657266616365204572726F720059
:104CA000496E76616C696420436F6D6D616E64203E
:104CB0004572726F720000004469766973696F6EA5
:104CC000206279207A65726F204572726F720000DF
:104CD0005265666572656E63652053706164204934
:104CE0006E6974204572726F720000004E6F7420FE
:104CF000696D706C656D656E746564206572726F48
:104D00007200000044A1284602F0ABFA22E046A15E
:104D1000284602F0A6FA1DE04AA1284602F0A1FAB0
:104D200018E04CA1284602F09CFA13E04CA128465A
:104D300002F097FA0EE04EA1284602F092FA09E03E
:104D40004FA1284602F08DFA04E049A1284602F05E
:104D500088FA00BF00BF304670BD70B504460D46EE
:104D60000026052C1DD2DFE804F003080D12170001
:104D700046A1284602F075FA16E045A1284602F041
:104D800070FA11E043A1284602F06BFA0CE043A14F
:104D9000284602F066FA07E043A1284602F061FACD
:104DA00002E06FF0030600BF00BF304670BD2DE982
:104DB000F04107460C4615460026062C22D2DFE8B5
:104DC00004F003080D12171C3AA1284602F049FA14
:104DD0001EE03DA1284602F044FA19E040A1284611
:104DE00002F03FFA14E042A1284602F03AFA0FE03E
:104DF00045A1284602F035FA0AE048A1284602F00B
:104E000030FA05E0AFF21431284602F02AFA00BF6A
:104E100000BF3046BDE8F081504F574552444F57D0
:104E20004E205374617465005761697420666F7217
:104E300020737461746963696E697420537461745A
:104E4000650000005354414E44425920537461742C
:104E50006500000049444C452053746174650000AE
:104E600052554E4E494E4720537461746500000000
:104E7000554E4B4E4F574E205374617465000000E1
:104E80004552524F5220537461746500544343009D
:104E9000445353004D5352430000000050524520EC
:104EA00052414E474500000046494E414C20524178
:104EB0004E4745005349474D412046494E414C20FD
:104EC00052414E47450000005349474E414C205245
:104ED0004154452046494E414C2052414E474500E1
:104EE0005349474E414C2052454620434C495000BF
:104EF00052414E47452049474E4F52452054485253
:104F00004553484F4C4400005349474E414C2052B2
:104F1000415445204D535243000000005349474E31
:104F2000414C2052415445205052452052414E4759
:104F30004500000010B588B0044669462046FBF7DE
:104F400060FD6A462146CCA002F02CF808B010BDE6
:104F500070B505460C4635B1012D09D0022D0CD097
:104F6000032D14D10EE0CAA1204602F07AF90EE01A
:104F7000C9A1204602F075F909E0CBA1204602F054
:104F800070F904E0CBA1204602F06BF900BF00BF2E
:104F900070BD2DE9F84305460E460024A04637466D
:104FA00095F85C01B84202D10020BDE8F8830022E8
:104FB0008821284600F08FFF044614B14FF0010805
:104FC00025E06A46C021284601F006F8044614B1DF
:104FD0004FF002081BE0BDF800004EF6AA618842BF
:104FE00014D139462846FCF714F9044614B14FF0A1
:104FF00003080CE085F85C716A46C021284600F081
:10500000EBFF044614B14FF0040800E000BF14B1F8
:105010002046FFF78FFFB8F1000F03D04146A8A04C
:1050200001F0C0FF2046C0E770B5044694F85C511B
:105030000020A64908601E2001F045F80120A4497F
:10504000C1F894011E2001F03EF8522084F85C0162
:1050500029462046FFF79DFF2046FCF788F970BDE2
:10506000F8B50446002526460121042001F0A2FCE3
:105070002020ADF8000010208DF8030003208DF8EB
:1050800002006946934801F0D9F9522086F85C0184
:10509000012086F85D014FF4C870A6F85E0100F0AB
:1050A00049FC0020894908601E2001F00CF801200D
:1050B0008749C1F894011E2001F005F854213046BB
:1050C000FFF767FF05B113E03046FCF750F90546DE
:1050D00005B10DE0022000F0F6FF7F493046FBF7F6
:1050E0005EFC054605B103E000207C49087000BF66
:1050F00025B12846FFF71EFF2846F8BD2846FCE7E5
:105100007FB5044600257648FFF7AAFF30B175A0A9
:1051100001F048FFC82000F0D6FF43E077A001F07F
:1051200041FF03AAC0216E4800F040FF9DF80C101B
:1051300077A001F037FF6A46C121694800F036FFC9
:105140009DF8001076A001F02DFF02AAC22164484C
:1051500000F02CFF9DF8081075A001F023FF12222B
:1051600051215F4800F0B7FE054602AA51215C4874
:1051700000F01CFF2A469DF8081071A001F012FFF4
:1051800049F612626221564800F0BBFE054601AAAC
:105190006221534800F020FF2A46BDF804106FA09A
:1051A00001F000FF21464E4800F07CF918B172A0D2
:1051B00001F0F8FE02E075A001F0F4FE7FBD30B50D
:1051C00085B000240025764A7649454800F0FFF96D
:1051D0000546B5B9744800881E2804DD7248008869
:1051E0001E38714908807048028870A1684601F035
:1051F000E5FE6D4801886FA001F0D4FE6A4804887E
:1052000003E06F4C6FA001F0CDFE204605B030BD2D
:1052100010B573A001F0C6FE2F497CA001F0C2FEBC
:105220002F4890F85C117CA001F0BCFE2A49403167
:105230007DA001F0B7FE284890F861107FA001F032
:10524000B1FE254890F8621082A001F0ABFE87A065
:1052500001F0A8FE10BD10B504462146204800F01C
:1052600021F950491E48FCF7D1FE4E48018989A01A
:1052700001F098FE10BD0000415049205374617444
:1052800075733A202569203A2025730D0A00000025
:1052900044656661756C74004869676820416363A2
:1052A00075726163790000004C6F6E672052616E09
:1052B0006765000048696768205370656564000091
:1052C0007374613A307825780D0A00009401214208
:1052D00000002142000801409C040020D002002070
:1052E0003C030020564C35334C30585F496E69748E
:1052F000204572726F722121210D0A00564C353300
:105300004C30585F496E6974204F4B0D0A00000005
:105310007265676330203D20307825780A0D0000E3
:105320007265676331203D20307825780A0D0000D2
:105330007265676332203D20307825780A0D0000C1
:105340007265673531203D20307825782C207374C4
:1053500061747573203D2025640A0D0072656736FF
:1053600031203D20307825782C207374617475735A
:10537000203D2025640A0D004D6F6465205365743F
:10538000204572726F722121210D0A004D6F6465F4
:1053900020536574204F4B2121210D0A000000008D
:1053A000FF040020200500200A030020253464208B
:1053B0006D6D0000643A202534696D6D0D0A0000A2
:1053C0009F8601004D6561737572656D656E742011
:1053D0006973204572726F722121210D0A0000004D
:1053E0000D0A2D2D2D2D2D2D2D766C35336C30780D
:1053F000B4ABB8D0C6F7C9E8B1B8D0C5CFA22D2D8F
:105400002D2D2D2D2D0D0A0D0A00000020204E619E
:105410006D653A25730D0A002020416464723A30AC
:105420007825780D0A000000202050726F647563A3
:105430007449643A25730D0A00000000202052656B
:10544000766973696F6E4D616A6F723A307825784C
:105450000D0A000020205265766973696F6E4D69F0
:105460006E6F723A307825780D0A00000D0A2D2DE6
:105470002D2D2D2D2D2D2D2D2D2D2D2D2D2D2D2D5C
:105480002D2D2D2D2D2D2D2D2D2D2D2D2D2D2D2D4C
:105490002D0D0A000D0A20643A20253464206D6D1C
:1054A0002E0D0A007FB506460D4600243046FFF754
:1054B000BBFD3046FBF758FD044602AA03A930465F
:1054C000FCF722FC044604B178E0022000F0FBFD6A
:1054D0006A4601A93046FCF705FF044604B16DE0B9
:1054E000022000F0F0FD00213046FCF7CDF8044624
:1054F00004B163E0022000F0E6FD01220021304605
:10550000FBF7D4FE044604B158E0022000F0DBFDB6
:10551000012211463046FBF7C9FE044604B14DE0B6
:10552000022000F0D0FDC5EBC500524901EB400060
:10553000426800213046FBF77EFE044604B13DE0A0
:10554000022000F0C0FDC5EBC5004A4901EB400058
:10555000026801213046FBF76EFE044604B12DE0DF
:10556000022000F0B0FDC5EBC500424A02EB40004E
:1055700081683046FBF770FA044604B11EE0022051
:1055800000F0A1FDC5EBC5003A4901EB4000027BEC
:1055900000213046FCF7F1F8044604B10EE0022089
:1055A00000F091FDC5EBC500324901EB4000427BA4
:1055B00001213046FCF7E1F8044600BF2CB120463B
:1055C000FFF7B8FC204604B070BD2046FBE72DE98C
:1055D000F04180460C461546002621464046FCF721
:1055E00015FD064616B13046BDE8F081277E202124
:1055F000284601F08CFE29463846FBF7F7F920894A
:105600001D4908803046EFE72DE9F04105460E467A
:105610000027002408E019A001F0C4FC601CC4B2FB
:10562000022C01D1BDE8F08131462846FFF73AFF50
:105630000028F0D10AE0164A16492846FFF7C7FFAE
:1056400007460D48018814A001F0ACFC002FF2D0F1
:105650004FF4FA7000F037FD12A001F0A3FC00BF78
:10566000E0E770B50446002529462046FFF7CCFF49
:1056700070BD0000D10200200A0300204D6F646558
:1056800020536574204572726F722121210D0A002A
:105690003C05002020050020643A202534696D6D0A
:1056A0000D0A00004D6561737572656D656E74203D
:1056B0006973204572726F722C50726F6772616DE0
:1056C00020436F6E74696E7565210D0A000000003D
:1056D0001FB50121042001F06DF90121084601F0F8
:1056E00069F91020ADF80C0048208DF80F0003A9CF
:1056F000864800F0A3FE0421002000F0B5FF102032
:10570000019000208DF808000C208DF80900012080
:105710008DF80A0001A801F0C3FB0A208DF80000F3
:1057200002208DF8010003208DF8020001208DF881
:105730000300684600F0B9FD1FBD10B50120744993
:105740000870102001F023FC10BD70B586B006462D
:105750000D460024FFF7BCFF3046FFF765FC3046DE
:10576000FBF702FC044604B1BEE004AA05A93046DA
:10577000FCF7CAFA044604B1B6E0022000F0A3FC2C
:1057800002AA03A93046FCF7ADFD044604B1ABE024
:10579000022000F098FC01213046FBF775FF04461B
:1057A00004B1A1E0022000F08EFCC5EBC500594A0F
:1057B00002EB400081683046FBF748FF044604B125
:1057C00092E0022000F07FFC012200213046FBF72E
:1057D0006DFD044604B187E0022000F074FC012254
:1057E00011463046FBF762FD044604B17CE002201E
:1057F00000F069FCC5EBC500464901EB400042687A
:1058000000213046FBF717FD044604B16CE002208E
:1058100000F059FCC5EBC5003E4901EB40000268B1
:1058200001213046FBF707FD044604B15CE002208D
:1058300000F049FCC5EBC500364A02EB4000816828
:105840003046FBF709F9044604B14DE0022000F0B0
:105850003AFCC5EBC5002F4901EB4000027B00215B
:105860003046FBF78AFF044604B13DE0022000F019
:105870002AFCC5EBC500274901EB4000427B012112
:105880003046FBF77AFF044604B12DE0022000F019
:105890001AFC3046FCF76BFA044604B124E00220FF
:1058A00000F011FC1C488368012142683046FCF777
:1058B00029FC044604B117E0022000F004FC00209B
:1058C000009015480378012200213046FBF799FA31
:1058D000044604B108E0022000F0F5FB0021304648
:1058E000FBF766FA044600BF24B12046FFF722FB0F
:1058F00006B070BD0020064908703046FCF75CF920
:1059000006A001F04FFB00BFF2E7000000080140D5
:1059100018030020D10200200C0300205374617290
:1059200074204D6561737572656D656E74210D0A25
:105930000000000008B50121042001F03BF80C2014
:10594000ADF8000010208DF8030003208DF8020050
:105950006946F74800F072FD0C21F54800F01BFE87
:1059600008BD10B5F248006820F47060F049086086
:105970000846006840F4407008600120ED49086066
:10598000ED49C1F88C01042000F079FB0020E949C1
:105990000860042000F073FB0020E749C1F88C0187
:1059A00010BD10B5E248006820F47060E04908605E
:1059B0000846006840F4407008600020DD49091D79
:1059C0000860DD49C1F88801042000F058FB01207F
:1059D000D849091D0860D849C1F88801042000F0A1
:1059E0004EFB10BD10B50024D148006820F4706053
:1059F000CF4908600846006840F400600860012054
:105A0000CC49086000F03BFB0120CB49C1F88C0178
:105A100000F035FB07E0601CC4B2FA2C03DDFFF791
:105A2000C0FF012010BDC348803800680028F2D1B3
:105A3000C049091D086000BFF4E710B50020BD494A
:105A4000091D0860BA48006820F47060B849086011
:105A50000846006840F4407008600020B649C1F86C
:105A60008801022000F00BFB0120B249091D0860EB
:105A7000022000F004FB0020AF49C1F88C0110BDEA
:105A800010B50020AB49091D0860A948006820F442
:105A90007060A74908600846006840F440700860DC
:105AA0000120A549C1F88801022000F0E8FA012090
:105AB000A049091D0860022000F0E1FA00209E497B
:105AC000C1F88C0110BD70B504469948006820F4F7
:105AD0007060974908600846006840F440700860AC
